:1000000026EF35F0000C000C046ED8CF05F0E0CFE1
:1000100006F00001E9CF0CF0EACF07F0E1CF08F0DD
:10002000E2CF09F0D9CF0AF0DACF0BF0F3CF12F01C
:10003000F4CF13F0FACF14F0F5CF15F0F6CF16F099
:10004000F7CF17F000C00EF001C00FF002C010F0A3
:1000500003C011F0F2AA30EF00F0F2B45DEF00F04F
:100060009DA036EF00F09EB04EEF04F00EC000F001
:100070000FC001F010C002F011C003F00CC0E9FF86
:1000800007C0EAFF078E08C0E1FF09C0E2FF0AC00F
:10009000D9FF0BC0DAFF12C0F3FF13C0F4FF14C086
:1000A000FAFF15C0F5FF16C0F6FF17C0F7FF0450A2
:1000B00006C0E0FF05C0D8FF10007B2BD8B47C2B16
:1000C0007E2B7E510B0802E27D2B7E6B9A0ED76E43
:1000D000460ED66EF29436EF00F045523A42414455
:1000E000434D440A0000020EEA6EA90EE96EEF507D
:1000F0000DE0060E016E006A002EFED7012EFBD722
:100100007B0E006E002EFED7EF2EF3D7000C830E71
:10011000D56E9A0ED76E460ED66EF28AC00EF212C9
:10012000000C95988C98948E95968C8695948C84DA
:10013000000C0201B96BB951070814E3D890B83725
:1001400002E28B9C01D08B8C949C95988C88948E29
:1001500082BE02D0D89001D0D880BA3795988C98BA
:10016000B92BE9D7BAC201F00001000C95968C9624
:10017000A9C2ABF2A9C2B8F20001DBDF0201B86B81
:100180000001D7DF01C0AAF295968C860201AAC2AF
:1001900001F00001000C95968C96FF0E0201B86FDD
:1001A0000001C7DF95968C86000C95968C9602010F
:1001B000B3514009B56FB86F0001BBDFB4C2B8F2EC
:1001C000B8DF95968C86000C95968C960201B251FC
:1001D000A009B46FB86F0001ACDFB3C2B8F2A9DFF9
:1001E00095968C86000C95968C960201B5518009E7
:1001F000B76FB86F00019DDFB6C2B8F29ADF95966F
:100200008C86000C1F0E0201B26F030EB36F00014B
:10021000DBDF020EEA6EB10EE96EEFCFB4F21F0E15
:100220000201B56FB4C2B6F20001DDDF000C959695
:100230008C96B0C2B2F2B0C2B8F200017ADF02010D
:10024000B86B000176DF0201B86B000172DF01C0FC
:10025000B1F295968C860201B1C201F00001000C4A
:10026000020E0201B16F140EB06F0001CBDF140E4D
:100270000201B36FADC2B4F2000197DF020EEA6E65
:10028000AE0EE96EEFCFB2F2160E0201B36FB2C23C
:10029000B4F200018ADF020EEA6EAF0EE96EEFCF14
:1002A000B2F2170E0201B36FB2C2B4F200017DDFE9
:1002B000030E0201B16F0A0EB06F0001A3DF0A0E38
:1002C0000201B06F0001B3DF01B0F9D7000C020EDC
:1002D0000201B16F140EB06F000194DF140E020121
:1002E000B36FADC2B4F2000160DF120E0201B36F52
:1002F000010EB46F000159DF030E0201B16F0A0E47
:10030000B06F00017FDF0A0E0201B06F00018FDFC6
:1003100001B0F9D7020E0201B16F140EB06F0001E7
:1003200071DF120E0201B36FB46B00013EDF180ED5
:100330000201B06F00017BDF01C0AEF2190E0201B5
:10034000B06F000174DF01C0AFF20201AEC201F074
:10035000AFC202F00001000C1F0E0201B26F0C0EC2
:10036000B36F000131DF0201AD6B0001B0DF02C0ED
:10037000ACF201C0ABF20201A951020804E1A96B81
:10038000ACB1A92B0BD0AC91A9B1AC81AD6BACC217
:10039000AFF2ABC2AEF2000163DF0201020EB16F39
:1003A000B06F00012FDF020E0201B06F00013FDFCE
:1003B00001C0AAF20201AA91A9B1AA81020EB36FEB
:1003C000AAC2B4F20001F1DE0201A95302E0150E47
:1003D00001D0120EAD6F040EB36FADC2B4F20001C6
:1003E000E4DE1F0E0201B56F040EB66F0001FBDEE6
:1003F000000C97DE1D0E0201A96F0001B7DE01C0DF
:10040000A8F20201A8A702D00001F4D7A851FF0A60
:10041000010BD8B402D00001EDD70001BCDE010E03
:100420000201A96F00015FDE7A6B8381806B7F6BB5
:10043000080E0201B36FB46B0001B7DE090E0201B2
:10044000B36FB46B0001B1DE0C0E0201B36FF70E97
:10045000B46F0001AADE0D0E0201B36F1B0EB46F64
:100460000001A3DE0A0E0201B36FF70EB46F0001A4
:100470009CDE0B0E0201B36F1B0EB46F000195DE04
:10048000040E0201B36FF80EB46F00018EDE050E8C
:100490000201B36F1B0EB46F000187DE020E020172
:1004A000B16FB06B0001AEDE0201B36B0D0EB46F25
:1004B00000017BDE020E0201B36F320EB46F000149
:1004C00074DE030E0201B36F400EB46F00016DDEE7
:1004D000090E0201B36F3F0EB46F000166DE060E17
:1004E0000201B36F120EB46F00015FDE070E02014E
:1004F000B36F0C0EB46F000158DE0A0E0201B36F29
:10050000EE0EB46F000151DE0B0E0201B36F050E4B
:10051000B46F00014ADE030E0201B16F040EB06F2A
:10052000000170DE040E0201B36F47C0B4F2000197
:100530003CDE050E0201B36F48C0B4F2000135DEA7
:10054000020E0201B36F49C0B4F200012EDE030EA9
:100550000201B36F4AC0B4F2000127DE0201B36B9F
:100560004BC0B4F2000121DE010E0201B36F4CC09A
:10057000B4F200011ADE120E0201A96F0001F6DDCD
:1005800001C084F0100E0201AD6F010EAF6FAE6BB3
:10059000000166DE140E0201AD6F040EAF6F720E25
:1005A000AE6F00015DDE0201A96B0001D5DE1F0EFA
:1005B0000201B56F040EB66F000115DE000C8393C7
:1005C000FF0E0101406F416F426F436F446F456FF3
:1005D000496B486B476B466B0001000CAEC279F06B
:1005E000ADC278F0ACC277F0ABC276F0000C02017D
:1005F000B36BB46B010EB56FDA6AD96A020EB86FCD
:10060000AB0EB76F020EEA6EAF0EE96EB8C2E2FF34
:10061000B7C2E1FFB5C2B6F2D890E550EE02F35092
:10062000B323F450B423B62FF7D7B3C2DEFFB4C25E
:10063000B3F2B46BD8B0B42BB72BD8B4B82BB52B5E
:10064000B5510508DFE10001000C016A026A006A89
:10065000036A0201B15102E1B05118E0100EB26F0D
:10066000D890AE37AF3700360336B151035C02E1A4
:10067000B051005C07E3B051005ED8A00306B15151
:10068000035ED88001360236B22FEAD70001000C93
:1006900079C0AEF278C0ADF277C0ACF276C0ABF202
:1006A000410E0201B26FC60EB16F4E0EB06F6D0EED
:1006B000AF6F00019CDF390E020100240001766F4C
:1006C000300E020101200001776F000E02010220AE
:1006D0000001786F000E020103200001796F78C0DD
:1006E00000F079C001F0026A036A79C0ADF278C007
:1006F000ACF279C0AFF278C0AEF27F0E0201B16FFA
:10070000FF0EB06F0001A1DF00C001F003C002F0D6
:10071000000C0201A86BA851040868E3A851240D3D
:10072000F350036A8A0F016E000E032201C0A9F282
:1007300003C0AAF2A9C2E9FFAAC2EAFF0A0EEF6E3D
:10074000230EA925E96E000EAA21EA6EEF90230E72
:10075000A925E96E000EAA21EA6EEF82230EA925D3
:10076000E96E000EAA21EA6EEF84230EA925E96E38
:10077000000EAA21EA6EEF98230EA925E96E000E5D
:10078000AA21EA6EEF960F0EA925E96E000EAA21A6
:10079000EA6EEF3C01D015D00F0EA925E96E000ED0
:1007A000AA21EA6EEFCFABF2ABC2ACF200012ADCB9
:1007B0000F0E0201A925E96E000EAA21EA6EFF0EB6
:1007C000EF6E210EA925E96E000EAA21EA6EEC6AF1
:1007D000ED52240EEF6E100EA925E96E000EAA212F
:1007E000EA6EEC6AED52EF6AA82B95D7D65001015C
:1007F0003E27D7503F23CE503E27CF503F23CC50EB
:100800003E27000E3F23B2503E27B3503F23020144
:10081000AE6BAD6B3FC1ACF23EC1ABF20001DEDEB0
:1008200037DF02C089F001C088F0040E89278951A2
:1008300012080AE2FF0A03E18851870805E2880EE0
:10084000885F130E895BF3D78951030802E3040E16
:100850008927000C01014A6B000159DCCADDAFDEBB
:1008600058DF000C1F0E01019C6FB60E9B6FA76B2B
:1008700000018399838722C0A3F123C0A4F124C07F
:10088000A5F125C0A6F1000C95948C94640E02018C
:10089000A96F000128DCDEDFE5DF000C0101ED2B94
:1008A000ED510C0805E10001EFDF9E900ED0010133
:1008B000ED5118080BE19E9095908C900A0E020164
:1008C000A96F000110DCD180040001019E9000019D
:1008D00036EF00F0F2CFEFF1F29EA96AA69CA69E39
:1008E000A680A8500101EFBFF28E266EEE6BEE518E
:1008F000030818E3036AEE51270FE96E000E032088
:10090000EA6E010EEE25F16FF2CFF2F1F29EF1C127
:10091000A9FFA69CA69EA680A850F2BFF28EEF6EFD
:10092000EE2BE5D7EE6BEE51030818E3036AEE51A8
:100930002B0FE96E000E0320EA6E050EEE25F16F17
:10094000F2CFF2F1F29EF1C1A9FFA69CA69EA6806D
:10095000A850F2BFF28EEF6EEE2BE5D7EE6BEE51A4
:10096000030818E3036AEE51330FE96E000E03200B
:10097000EA6E090EEE25F16FF2CFF2F1F29EF1C1AF
:10098000A9FFA69CA69EA680A850F2BFF28EEF6E8D
:10099000EE2BE5D7EE6BEE51030818E3036AEE5138
:1009A0002F0FE96E000E0320EA6E0D0EEE25F16F9B
:1009B000F2CFF2F1F29EF1C1A9FFA69CA69EA680FD
:1009C000A850F2BFF28EEF6EEE2BE5D7EE6BEE5134
:1009D000030818E3036AEE51370FE96E000E032097
:1009E000EA6E110EEE25F16FF2CFF2F1F29EF1C137
:1009F000A9FFA69CA69EA680A850F2BFF28EEF6E1D
:100A0000EE2BE5D7EE6BEE51070818E3036AEE51C3
:100A10003B0FE96E000E0320EA6E150EEE25F16F16
:100A2000F2CFF2F1F29EF1C1A9FFA69CA69EA6808C
:100A3000A850F2BFF28EEF6EEE2BE5D70001E0EF8B
:100A400006F0A30E376E386A396A3A6AE4EF06F0A8
:100A5000010E266EC00E276EA80E286E010E296E9E
:100A6000FC0E2A6EC00E2B6EA80E2C6E010E2D6E83
:100A7000810E2E6EFF0E2F6E306E316E326AC00EFA
:100A8000336EA80E346E010E356E366E0101EF6BBB
:100A9000EF5107080BE3036AEF513B0FE96E000EBD
:100AA0000320EA6E010EEF6EEF2BF2D70001000C6F
:100AB0000201276B2751030824E3110E2725286F15
:100AC000036A2751370FE96E000E0320EA6EEFCF5D
:100AD00029F228C2A9FF29C2A8FFA69CA69EA68427
:100AE000F250006EF29E0F01550EA76EAA0EA76E71
:100AF000A682A6B2FED7A6940050F2120201272BBE
:100B0000D9D70001000CA96A26C0A8FFA69CA69E02
:100B1000A684F250006EF29E0F01550EA76EAA0E2B
:100B2000A76EA682A6B2FED7A6940050F2120001CC
:100B300072EF06F00201276B2751030824E3010E30
:100B40002725286F036A2751270FE96E000E03201F
:100B5000EA6EEFCF29F228C2A9FF29C2A8FFA69CFE
:100B6000A69EA684F250006EF29E0F01550EA76E4F
:100B7000AA0EA76EA682A6B2FED7A6940050F212C5
:100B80000201272BD9D70001000C0201276B275146
:100B9000030824E3050E2725286F036A27512B0F2E
:100BA000E96E000E0320EA6EEFCF29F228C2A9FFFA
:100BB00029C2A8FFA69CA69EA684F250006EF29EB3
:100BC0000F01550EA76EAA0EA76EA682A6B2FED77B
:100BD000A6940050F2120201272BD9D70001000C75
:100BE0000201276B2751030824E3090E2725286FEC
:100BF000036A2751330FE96E000E0320EA6EEFCF30
:100C000029F228C2A9FF29C2A8FFA69CA69EA684F5
:100C1000F250006EF29E0F01550EA76EAA0EA76E3F
:100C2000A682A6B2FED7A6940050F2120201272B8C
:100C3000D9D70001000C0201276B2751030824E3D8
:100C40000D0E2725286F036A27512F0FE96E000E1E
:100C50000320EA6EEFCF29F228C2A9FF29C2A8FF1C
:100C6000A69CA69EA684F250006EF29E0F01550E21
:100C7000A76EAA0EA76EA682A6B2FED7A6940050B3
:100C8000F2120201272BD9D70001000C02010C6BD4
:100C90000C51070824E3150E0C250D6F036A0C5147
:100CA0003B0FE96E000E0320EA6EEFCF0EF20DC28D
:100CB000A9FF0EC2A8FFA69CA69EA684F250006EB5
:100CC000F29E0F01550EA76EAA0EA76EA682A6B2BF
:100CD000FED7A6940050F21202010C2BD9D70001C6
:100CE000000C11D727DF51DF7BDFA5DFCFDF000C42
:100CF000476A040E486E37C049F038C04AF039C020
:100D00004BF03AC04CF0E9EF06F00101EE6BEE510A
:100D1000030819E3036AEE51220F016E000E03224D
:100D200003C0F0F1036AEE51270FE96E000E0320B5
:100D3000EA6EEFCFF1F1F0C1EAFF01C0E9FFF1C1C6
:100D4000EFFFEE2BE4D72BC043F02CC044F02DC0B6
:100D500045F02EC046F033C051F034C052F035C0DB
:100D600053F036C054F02FC04DF030C04EF031C0BB
:100D70004FF032C050F00001EAEF06F00101EE6BD7
:100D8000EE51070819E3036AEE511A0F016E000EC7
:100D9000032203C0F0F1036AEE513B0FE96E000E2F
:100DA0000320EA6EEFCFF1F1F0C1EAFF01C0E9FFE5
:100DB000F1C1EFFFEE2BE4D70001EBEF06F08AD58F
:100DC000262C01D005D03DD643DE72DE8ADF00D06E
:100DD0008FD79BD7D3D7A3EF35F0958E938093828F
:100DE00093849488948A958A958C9386958296921A
:100DF0008D9296908D90929A899A929889989494CF
:100E00008B9494928B9294908B9096948D949590D1
:100E10008C9093988A98A5EF35F093988A88000C67
:100E200002010F51070B006E0F31016E01320132CA
:100E30001F0E011601501125E96E000E1221EA6EF7
:100E4000016A012A002A01D00136002EFDD7105375
:100E500003E00150EF1203D0011E0150EF16000114
:100E6000000C0101F15311E10A0EF26F196AF2BE92
:100E7000198EF29EFA0E0201A96F000173EC00F0C8
:100E800019BEF28E0101F22FF1D7F0C10FF2010E5F
:100E90000201106F0F0E126F890E116F0001C0DF7B
:100EA000F0C10FF20201106B0F0E126F920E116F54
:100EB0000001B6DF000C0101EE91EEB10FD095906C
:100EC0008C80196AF2BE198EF29E640E0201A96F1F
:100ED000000173EC00F019BEF28E0101F2CFEFF1C8
:100EE000F29E1D0EA96EA69CA69EA680A850EFBFDE
:100EF000F28E01080BE1000EEEB1010EEF6F210E34
:100F0000F06FEFC1F1F10001ACDF0101F2CFEFF1C1
:100F1000F29E1E0EA96EA69CA69EA680A850EFBFAC
:100F2000F28E01080BE1000EEEB1010EEF6F200E04
:100F3000F06FEFC1F1F1000194DF0101F2CFEFF1A9
:100F4000F29E1F0EA96EA69CA69EA680A850EFBF7B
:100F5000F28E01080BE1000EEEB1010EEF6F050EEF
:100F6000F06FEFC1F1F100017CDF0101F2CFEFF191
:100F7000F29E200EA96EA69CA69EA680A850EFBF4A
:100F8000F28E01080BE1000EEEB1010EEF6F040EC0
:100F9000F06FEFC1F1F1000164DF0101EEA102D0B9
:100FA00095908C800001BCEF35F00101D19181B6A4
:100FB000D181D19383BED183D19581B0D185D19791
:100FC00081B2D187D19981B4D189D19B82B8D18B9B
:100FD000D19D82BAD18DD19F83BAD18FD29183BC5A
:100FE000D281000102EF08F0F29A7CC041F27BC08E
:100FF00040F2F28A020140C201F041C202F0000157
:10100000000CD3D7F1DF02C0EFF101C0EEF1010116
:10101000F06BF05108081AE3F0C10FF20201106BF7
:10102000010E126FD50E116F0001FADED89001018A
:10103000F035036AD70FE96E010E0320EA6EEFC1A7
:10104000ECFFED52EEC1EFFFF02BE3D700018395EB
:101050000101EC6BEB6B0001BEEF35F0A50ECD6E20
:10106000CF6ACE6A9E909D80C00EF212C0EF35F01E
:1010700083A101D04CD08381010E7F5D0201406FBE
:10108000000E000180590201416F41511A0809E226
:10109000FF0A03E14051F70804E21B0E416FF70E0F
:1010A000406F196AF2BE198EF29E1E0EB56F400E89
:1010B000B66F0001F3EC00F019BEF28E196AF2BEB1
:1010C000198EF29E0201B16B0C0EB06F000102ECA2
:1010D00001F019BEF28E196AF2BE198EF29E0C0E44
:1010E0000201B36F40C2B4F20001D5EC00F019BEAA
:1010F000F28E196AF2BE198EF29E0D0E0201B36FC6
:1011000041C2B4F20001D5EC00F019BEF28E000C21
:1011100002018D6B8C6B95968C96196AF2BE198EB6
:10112000F29E3A0EB86F000199EC00F019BEF28EF3
:1011300002018D518B5D22E303E18A518C5D1EE239
:1011400089C203F088C28EF289C28FF2196AF2BE98
:10115000198EF29EB86B000199EC00F019BEF28E68
:101160008FC2EAFF8EC2E9FF01C0EFFF0201882BA8
:10117000D8B4892B8C2BD8B48D2BDBD795968C8645
:101180008CC201F08DC202F00001000C9AC29BF2E9
:1011900099C29CF202019BC201F09CC202F00001C4
:1011A000000C196AF2BE198EF29E010E0201B16F97
:1011B000190EB06F000102EC01F019BEF28E196A2F
:1011C000F2BE198EF29E190E0201A96F0001B6EC53
:1011D00000F019BEF28E015203E1000E016E9AD0AA
:1011E00083B104D045DF000E016E94D080C082F040
:1011F0007FC081F0196AF2BE198EF29E0201B16BB6
:10120000B06B000102EC01F019BEF28E196AF2BE59
:10121000198EF29E0201B36B7FC0B4F20001D5ECCF
:1012200000F019BEF28E196AF2BE198EF29E010EFE
:101230000201B36F80C0B4F20001D5EC00F019BE1A
:10124000F28E010E02010D6FF80E0DC289F2886F49
:101250008B6B140E8A6F00015BDF0BC29AF20AC21D
:1012600099F294DF02C00BF201C00AF20101F951B8
:101270001A0805E2FF0A17E1F851F70814E3010E16
:10128000EA6EF80EE96EEFB00ED0FDBF0CD0FCB9DF
:101290000AD0FB51040805E2FF0A05E1FA51EE0805
:1012A00002E3FCBF01D0FF00F9C180F0F8C17FF07C
:1012B000F5C103F0F4C10CF20201F5C10DF2F5C164
:1012C000EAFFF4C1E9FF020EE26E040EE16E060EC3
:1012D000016EE6CFEEFF012EFCD7F7C103F001014E
:1012E000F6C1E9FF03C0EAFFFF0EEF6E02010B51EA
:1012F00008080CE10A5303E00A51060807E101015E
:10130000F6C1E9FFF7C1EAFF0AC2EFFF00018391CE
:10131000010E016EF6EF21F0020137C201F038C272
:1013200003F037C239F238C23AF237C2E9FF38C2A5
:10133000EAFFECCF3CF2ED52EFCF3BF23CC29AF227
:101340003BC299F2000122DF3AC2EAFF39C2E9FF4B
:1013500002C0ECFFED5201C0EFFF020E0201372583
:10136000016E000E3821036E01C039F23A6F020E91
:101370003725E96E000E3821EA6EECCF3CF2ED52D3
:10138000EFCF3BF23CC29AF23BC299F20001FEDE83
:101390003AC2EAFF39C2E9FF02C0ECFFED5201C0D8
:1013A000EFFF060E02013725016E000E3821036E95
:1013B00001C039F23A6F060E3725E96E000E38216A
:1013C000EA6EECCF3CF2ED52EFCF3BF23CC29AF228
:1013D0003BC299F20001DADE3AC2EAFF39C2E9FF04
:1013E00002C0ECFFED5201C0EFFF000C020E020143
:1013F000896F030E886F8B6B1C0E8A6F000188DE6D
:1014000037DE020E0201386F030E376F000184DFF2
:101410000201032D08D0045306E10751060803E139
:101420000851040803E0000E016E51D00951020872
:1014300008E10A5306E101C2E9FF02C2EAFFEF6ACE
:1014400014D0092D09D00A5307E101C2E9FF02C2F5
:10145000EAFF010EEF6E09D001C2E9FF02C2EAFF06
:10146000020EEF6E000E016E32D043501B5D2CE178
:1014700044501C5D29E145501D5D26E146501E5D2E
:1014800023E1FFC1E9FF020100C2EAFF020EE26EA2
:101490000B0EE16E060E016EE6CFEEFF012EFCD7BD
:1014A000060E0101FF25E96E000E02010021EA6E21
:1014B00011C2EFFF12C2ECFF13C2ECFF14C2ECFF2B
:1014C000010E016E04D003D0000E016E00D00001A9
:1014D00020EF0EF0196AF2BE198EF29E1F0E020165
:1014E000A96F0001B6EC00F019BEF28E01B602D071
:1014F000000E01D0FF0E016E00D0000C93C27AF0F6
:10150000070E020194271C0E9523196AF2BE198E4C
:10151000F29EB16B020EB06F000102EC01F019BE39
:10152000F28E020EEA6E940EE96EEFCF98F2196A0F
:10153000F2BE198EF29E0201B36B98C2B4F20001A2
:10154000D5EC00F019BEF28E020EEA6E950EE96E31
:10155000EFCF98F2196AF2BE198EF29E010E0201C7
:10156000B36F98C2B4F20001D5EC00F019BEF28E50
:10157000020EEA6E940EE96EEFCF98F2196AF2BE8F
:10158000198EF29E020E0201B36F98C2B4F20001EE
:10159000D5EC00F019BEF28E020EEA6E950EE96EE1
:1015A000EFCF98F2196AF2BE198EF29E030E020175
:1015B000B36F98C2B4F20001D5EC00F019BEF28E00
:1015C000000C95968C96196AF2BE198EF29E7A0ED0
:1015D0000201B86F000199EC00F019BEF28E196A91
:1015E000F2BE198EF29E9DC2B8F299EC00F019BEBF
:1015F000F28E95968C86000C95968C96196AF2BEA2
:10160000198EF29E7A0E0201B86F000199EC00F07B
:1016100019BEF28E0201A1C203F0A051D8B4A107F5
:10162000A007031018E09FC203F09EC2E9FF9FC20B
:10163000EAFFEFCFA2F2196AF2BE198EF29EA2C2A1
:10164000B8F2000199EC00F019BEF28E02019E2B57
:10165000D8B49F2BE0D795968C860001000C196AB0
:10166000F2BE198EF29E0201B16B020EB06F000144
:1016700002EC01F019BEF28E196AF2BE198EF29ECA
:10168000020E0201B36FF80EB46F0001D5EC00F04A
:1016900019BEF28E196AF2BE198EF29E030E020175
:1016A000B36F1B0EB46F0001D5EC00F019BEF28EC3
:1016B000060E02019A271C0E9B23020EEA6E9A0E5A
:1016C000E96EEFCF9EF2196AF2BE198EF29E060EF7
:1016D000B36F9EC2B4F20001D5EC00F019BEF28ED9
:1016E000020EEA6E9B0EE96EEFCF9EF2196AF2BE11
:1016F000198EF29E070E0201B36F9EC2B4F2000172
:10170000D5EC00F019BEF28E02019D6B000159DF8D
:1017100098C29FF297C29EF20201A16B060EA06FC3
:1017200000016ADF02019D6B470E9DC29FF29E6F12
:10173000A16B060EA06F00015FDF080E02019D6F16
:1017400000013FDF0201995302E1000E01D0060EB5
:101750009D6F000136DF000C196AF2BE198EF29EF1
:101760001C0E0201A96F0001B6EC00F019BEF28E4A
:1017700001A21CD0196AF2BE198EF29E1F0E020140
:10178000B56F800EB66F0001F3EC00F019BEF28E5B
:10179000196AF2BE198EF29E1F0E0201B26F800E00
:1017A000B36F0001E4EC00F019BEF28E196AF2BECC
:1017B000198EF29E1C0E0201B26F0A0EB36F000169
:1017C000E4EC00F019BEF28E196AF2BE198EF29E98
:1017D0001F0E0201B56F080EB66F0001F3EC00F0AA
:1017E00019BEF28E84510508D8A44ED1196AF2BEF2
:1017F000198EF29E1C0E0201A96F0001B6EC00F0DA
:1018000019BEF28E01500A0BF1E0196AF2BE198E70
:10181000F29E1C0E0201A96F0001B6EC00F019BE89
:10182000F28E01A231D1196AF2BE198EF29E1F0EFC
:101830000201B26F080EB36F0001E4EC00F019BEB4
:10184000F28E196AF2BE198EF29E0201B16BB06B74
:10185000000102EC01F019BEF28E196AF2BE198E77
:10186000F29E0201A96B0001B6EC00F019BEF28EE7
:1018700001C07AF2196AF2BE198EF29E010E0201BF
:10188000A96F0001B6EC00F019BEF28E01C07BF228
:10189000196AF2BE198EF29E060E0201A96F0001AE
:1018A000B6EC00F019BEF28E01C07CF2196AF2BEED
:1018B000198EF29E070E0201A96F0001B6EC00F02E
:1018C00019BEF28E01C07DF202017C2BD8B47D2BB3
:1018D000196AF2BE198EF29EB36B7CC2B4F200019B
:1018E000D5EC00F019BEF28E196AF2BE198EF29E86
:1018F000010E0201B36F7DC2B4F20001D5EC00F01D
:1019000019BEF28E020E0201876F7E0E87C289F227
:10191000886F8B6B070E8A6F000188EC08F002015C
:10192000856B85510F08D8A095D0196AF2BE198E23
:10193000F29E1C0EA96F0001B6EC00F019BEF28EEB
:1019400001A282D0020181BB02D000017DD0196AC0
:10195000F2BE198EF29E1F0EB56F800EB66F00019B
:10196000F3EC00F019BEF28E196AF2BE198EF29EE7
:101970001F0E0201B26F800EB36F0001E4EC00F0A5
:1019800019BEF28E196AF2BE198EF29E1C0E020169
:10199000B26F0A0EB36F0001E4EC00F019BEF28ED4
:1019A000196AF2BE198EF29E1F0E0201B56F080E63
:1019B000B66F0001F3EC00F019BEF28E196AF2BEA8
:1019C000198EF29E1C0E0201A96F0001B6EC00F008
:1019D00019BEF28E01500A0BF1E0196AF2BE198E9F
:1019E000F29E1F0E0201B26F080EB36F0001E4EC0D
:1019F00000F019BEF28E196AF2BE198EF29E020133
:101A0000B36B7CC2B4F20001D5EC00F019BEF28ECB
:101A1000196AF2BE198EF29E010E0201B36F7DC2E9
:101A2000B4F20001D5EC00F019BEF28E020E0201F4
:101A3000876F7E0E87C289F2886F8B6B070E8A6F65
:101A4000000188EC08F003D0020104D0000102017B
:101A5000852B67D7196AF2BE198EF29EB36B7AC2D4
:101A6000B4F20001D5EC00F019BEF28E196AF2BE94
:101A7000198EF29E010E0201B36F7BC2B4F2000117
:101A8000D5EC00F019BEF28E000C010E02017A6F47
:101A9000000120DD01C036F20201363D03D0000E08
:101AA000016EB8D036C293F2956B946B000126DDBF
:101AB00002011B6B010E1A6F080E1D6F1C6B060EC8
:101AC0001E6F040E1F6F192D0BD0216B010E206F9E
:101AD000FF0E2C6F2D6F2E6F2F6F306F316F17D061
:101AE000216B020E206F18C203F017C237F218C222
:101AF00038F2020EEA6E2C0EE96E18C2E2FF17C22F
:101B0000E1FF060E016EE6CFEEFF012EFCD7020EBE
:101B1000EA6E220EE96EE26A470EE16E060E016E73
:101B2000E6CFEEFF012EFCD746C02BF245C02AF2CD
:101B300044C029F243C028F2060E1725E96E000EB4
:101B40001821EA6EEFCF00F0ECCF01F0ECCF02F0FD
:101B5000ECCF03F000502819376F01502919386F66
:101B600002502A19396F03502B193A6F37514D140F
:101B7000006E38514E14016E39514F14026E3A51B5
:101B80005014036E005206E1015204E1025202E1D8
:101B9000035209E054C035F253C034F252C033F25C
:101BA00051C032F216D0060E1725E96E000E18212C
:101BB000EA6EEFCF00F0ECCF01F0ECCF02F0ECCF0B
:101BC00003F003C035F202C034F201C033F200C0AA
:101BD00032F2020E386F1A0E376F00018CEC09F0EA
:101BE000020E0201986F2C0E976F060E996F9B6B79
:101BF0001C0E9A6F000133DD020E02019F6F1A0E58
:101C00009E6FA16B1C0EA06F0001F6DCA5DD010E1E
:101C1000016E02010001000C000E83B3010E000AE8
:101C200001E031D0010E0201006FF40E0101FF6FDF
:101C3000010E0201026FFE0E016F0001F6EF09F0C6
:101C4000015201E130D038EC08F00101FE5319E1F6
:101C5000010EEA6E400EE96E010EE26EF40EE16EC8
:101C6000060E016EE6CFEEFF012EFCD7FDC149F155
:101C7000FCC148F1FBC147F1FAC146F1000113D0A4
:101C800002D000018383010E0201186FF40E176F5A
:101C9000196B0001FADE015202E0839303D0000EBB
:101CA000016E03D000D0010E016E0EEF22F0140E73
:101CB00081250201536F000E000182210201546F41
:101CC0004D515325516F4E515421526F52511A08A4
:101CD00009E2FF0A03E15151F70804E2F80E515FEF
:101CE0001B0E525B196AF2BE198EF29EB16B100E7A
:101CF000B06F000102EC01F019BEF28E196AF2BE5B
:101D0000198EF29E100E0201B36F51C2B4F200019F
:101D1000D5EC00F019BEF28E196AF2BE198EF29E51
:101D2000110E0201B36F52C2B4F20001D5EC00F003
:101D300019BEF28E010E02014F5D006E000E505969
:101D4000036E005051270350522352511A0809E2E2
:101D5000FF0A03E15151F70804E2F80E515F1B0E30
:101D6000525B196AF2BE198EF29E120EB36F51C207
:101D7000B4F20001D5EC00F019BEF28E196AF2BE81
:101D8000198EF29E130E0201B36F52C2B4F200011B
:101D9000D5EC00F019BEF28E196AF2BE198EF29ED1
:101DA0001F0E0201B56F300EB66F0001F3EC00F0AC
:101DB00019BEF28E196AF2BE198EF29E1F0E020132
:101DC000A96F0001B6EC00F019BEF28E01BAF2D78D
:101DD000196AF2BE198EF29E160E0201A96F000159
:101DE000B6EC00F019BEF28E01C052F2196AF2BED2
:101DF000198EF29E170E0201A96F0001B6EC00F0D9
:101E000019BEF28E01C051F2020151C201F052C25C
:101E100002F00001000C140E81250201296F000E52
:101E20000001822102012A6F25512925276F2651A1
:101E30002A21286F28511A0809E2FF0A03E12751D5
:101E4000F70804E2F80E275F1B0E285B196AF2BE42
:101E5000198EF29EB16BB06B000102EC01F019BE5D
:101E6000F28E196AF2BE198EF29E0201B36B27C27E
:101E7000B4F20001D5EC00F019BEF28E196AF2BE80
:101E8000198EF29E010E0201B36F28C2B4F2000156
:101E9000D5EC00F019BEF28E196AF2BE198EF29ED0
:101EA000020E0201B36F27C2B4F20001D5EC00F0BC
:101EB00019BEF28E196AF2BE198EF29E030E02014D
:101EC000B36F28C2B4F20001D5EC00F019BEF28E57
:101ED000000C020E02019325016E000E9421036E88
:101EE00001C095F2966F020E9325E96E000E9421C3
:101EF000EA6EECCF98F2ED52EFCF97F298C29AF2D9
:101F000097C299F20001C6EC08F096C2EAFF95C2AA
:101F1000E9FF02C0ECFFED5201C0EFFF040E020129
:101F20009325016E000E9421036E01C095F2966F09
:101F3000040E9325E96E000E9421EA6EECCF98F220
:101F4000ED52EFCF97F298C29AF297C299F2000140
:101F5000C6EC08F096C2EAFF95C2E9FF02C0ECFFAA
:101F6000ED5201C0EFFF0A0E02019325016E000E33
:101F70009421036E01C095F2966F0A0E9325E96EC7
:101F8000000E9421EA6EECCF98F2ED52EFCF97F26B
:101F900098C29AF297C299F20001C6EC08F096C274
:101FA000EAFF95C2E9FF02C0ECFFED5201C0EFFF6E
:101FB000000C010E0201136FFE0E13C289F2886F2E
:101FC0008B6B140E8A6F000188EC08F00101FE5142
:101FD000F00B400803E0000E016E5ED0FE510F0BC7
:101FE000006E00340001876F8737FC0E87170201EF
:101FF0004E6B4D6B506B87C04FF2000158DE02C034
:10200000FDF101C0FCF10201266B87C025F2000141
:1020100002DF0101FC51FD1103E0000E016E3CD016
:10202000010E0201946FFE0E936F000152DF010159
:10203000F451F5110CE0F4C1E9FFF5C1EAFF0EC25D
:10204000EFFF0FC2ECFF10C2ECFF11C2ECFF060E57
:10205000F625E96E000EF721EA6E0AC2EFFF0BC209
:10206000ECFF0CC2ECFF0DC2ECFFF8C1E9FFF9C1B7
:10207000EAFF07C2EFFFFAC1E9FFFBC1EAFF000177
:1020800087510201005D006E000E015900C0EFFF94
:10209000EC6E010E016E0101000128EF22F0020139
:1020A0008B6B8A6B896B886BD8907F31816F7E31A7
:1020B000806F7DC283F27CC282F281C203F08051C4
:1020C000D8B481078007031017E083C203F082C2EF
:1020D00000F0020E8227D8B0832B00C0E9FF03C0B6
:1020E000EAFFECCF03F0ED52EF508827035089232D
:1020F000000E8A238B23E1D77E51010B006E036A09
:10210000005003100AE082C2E9FF83C2EAFFEF50E9
:102110008827000E89238A238B238BC287F28AC2E9
:1021200086F289C285F288C284F287C281F286C2B1
:1021300080F2805302E1815323E08B6B8A6B8F6BBB
:102140008E6B89C28DF288C28CF2026A036A80515A
:102150008825886F81518921896F02508E218A6F6D
:1021600003508F218B6F8BC287F28AC286F289C29D
:1021700085F288C284F287C281F286C280F2D9D702
:1021800089C203F0031E8851FF0A016E03C002F0EA
:102190000001000C95968C96196AF2BE198EF29E7B
:1021A0003A0E0201B86F000199EC00F019BEF28EF0
:1021B000196AF2BE198EF29E0201B86B000199EC09
:1021C00000F019BEF28E01C07EF295968C86020157
:1021D0007EC201F00001000C02017A5307E17B533B
:1021E00005E1FF0E016E026EDBD017D07A2D15D0FF
:1021F0007B5313E10001CEDF02017F6B01C07EF251
:1022000001C003F0000E006A0006001AFF0E031A58
:1022100000C001F003C002F0C3D0196AF2BE198EEB
:10222000F29EB16BB06B000102EC01F019BEF28EB0
:10223000196AF2BE198EF29E0201A96B0001B6EC7A
:1022400000F019BEF28E01C07CF2196AF2BE198E3E
:10225000F29E010E0201A96F0001B6EC00F019BE5A
:10226000F28E01C07DF2196AF2BE198EF29E100E36
:102270000201B36F7CC2B4F20001D5EC00F019BECC
:10228000F28E196AF2BE198EF29E110E0201B36F20
:102290007DC2B4F20001D5EC00F019BEF28E02014D
:1022A0007D511B081BE303E17C51F70817E3010E86
:1022B0007A5D006E000E7B59036E00507C27035040
:1022C0007D237D511A0809E2FF0A03E17C51F708DA
:1022D00004E2F80E7C5F1B0E7D5B0AD0010E7A5D76
:1022E000006E000E7B59036E00507C2703507D2347
:1022F000196AF2BE198EF29E120EB36F7CC2B4F24E
:102300000001D5EC00F019BEF28E196AF2BE198EEA
:10231000F29E130E0201B36F7DC2B4F20001D5EC40
:1023200000F019BEF28E196AF2BE198EF29E1F0ECF
:102330000201B56F300EB66F0001F3EC00F019BE6C
:10234000F28E196AF2BE198EF29E1F0E0201A96F5B
:102350000001B6EC00F019BEF28E01BAF2D7196A8C
:10236000F2BE198EF29E160E0201A96F0001B6ECA4
:1023700000F019BEF28E01C07CF2196AF2BE198E0D
:10238000F29E170E0201A96F0001B6EC00F019BE13
:10239000F28E01C07DF202017CC201F07DC202F02A
:1023A0000001000C875102012125236F000E22211C
:1023B000246F266F23C225F200012DDD000C85C29B
:1023C00086F284C287F283C288F282C289F286C210
:1023D00000F087C201F088C202F089C203F0000C4D
:1023E00002017AC201F07BC203F07AC27CF27BC2A6
:1023F0007DF27AC2E9FF7BC2EAFFECCF7FF2ED52B9
:10240000EFCF7EF27FC29AF27EC299F20001C6EC53
:1024100008F07DC2EAFF7CC2E9FF02C0ECFFED528A
:1024200001C0EFFF020E02017A25016E000E7B2132
:10243000036E01C07CF27D6F020E7A25E96E000EFC
:102440007B21EA6EECCF7FF2ED52EFCF7EF27FC2BE
:102450009AF27EC299F20001C6EC08F07DC2EAFF52
:102460007CC2E9FF02C0ECFFED5201C0EFFF040E99
:1024700002017A25016E000E7B21036E01C07CF201
:102480007D6F040E7A25E96E000E7B21EA6EEFCF98
:102490007EF2ECCF7FF2ECCF80F2ECCF81F281C202
:1024A00085F280C284F27FC283F27EC282F2000192
:1024B00086DF7DC2EAFF7CC2E9FF00C0EFFF01C0FA
:1024C000ECFF02C0ECFF03C0ECFF080E02017A250E
:1024D000016E000E7B21036E01C07CF27D6F080E41
:1024E0007A25E96E000E7B21EA6EEFCF7EF2ECCF0B
:1024F0007FF2ECCF80F2ECCF81F281C285F280C214
:1025000084F27FC283F27EC282F2000158DF7DC274
:10251000EAFF7CC2E9FF00C0EFFF01C0ECFF02C090
:10252000ECFF03C0ECFF0E0E02017A25016E000ED7
:102530007B21036E01C07CF27D6F0E0E7A25E96E61
:10254000000E7B21EA6EECCF7FF2ED52EFCF7EF2F0
:102550007FC29AF27EC299F20001C6EC08F07DC2F9
:10256000EAFF7CC2E9FF02C0ECFFED5201C0EFFFC1
:10257000100E02017A25016E000E7B21036E01C050
:102580007CF27D6F100E7A25E96E000E7B21EA6EDB
:10259000ECCF7FF2ED52EFCF7EF27FC29AF27EC295
:1025A00099F20001C6EC08F07DC2EAFF7CC2E9FFA7
:1025B00002C0ECFFED5201C0EFFF120E02017A25BE
:1025C000016E000E7B21036E01C07CF27D6F120E46
:1025D0007A25E96E000E7B21EA6EECCF7FF2ED5298
:1025E000EFCF7EF27FC29AF27EC299F20001C6EC72
:1025F00008F07DC2EAFF7CC2E9FF02C0ECFFED52A9
:1026000001C0EFFF000CFE0E0201276F266B265162
:102610000408D8A07AD02651240DF350036A8A0FFB
:10262000016E000E032201C024F203C025F224C271
:10263000E9FF25C2EAFFEF500A0865E00B0E2425EA
:10264000E96E000E2521EA6EECCF29F2ED52EFCFB4
:1026500028F2020E2025E96E000E2121EA6EECCF51
:1026600003F0ED52EF50285D4EE10350295D4BE140
:1026700024C2E9FF25C2EAFFEF5202E126C227F297
:102680000D0E2425E96E000E2521EA6EECCF29F20D
:10269000ED52EFCF28F220C2E9FF21C2EAFFECCFD2
:1026A00003F0ED52EF50285D2EE10350295D2BE140
:1026B000070E2425E96E000E2521EA6EEFCF28F2E1
:1026C000ECCF29F2ECCF2AF2ECCF2BF2060E22252A
:1026D000E96E000E2321EA6EEFCF00F0ECCF01F09F
:1026E000ECCF02F0ECCF03F00050285D0CE101507C
:1026F000295D09E102502A5D06E103502B5D03E1EB
:1027000026C201F075D0262B82D72751FE0803E19F
:10271000FE0E016E6DD02751240DF350036A8A0F0F
:10272000016E000E032201C024F203C025F2010E47
:102730002425016E000E2521036E01C028F2296FA9
:10274000EA6E01C0E9FF23C2E2FF22C2E1FF0A0EE6
:10275000016EE6CFEEFF012EFCD70D0E2425016E93
:10276000000E252120C2E9FF21C2EAFFECCF03F0D1
:10277000ED52EFCF2AF2EA6E01C0E9FF03C0ECFF91
:10278000ED522AC2EFFF230E2425E96E000E25210B
:10279000EA6EEF960F0E2425E96E000E2521EA6EF3
:1027A000EF3C01D01CD00F0E2425E96E000E252130
:1027B000EA6EEFCF28F2196AF2BE198EF29E28C295
:1027C000ACF2000102EC00F019BEF28E0F0E020115
:1027D0002425E96E000E2521EA6EFF0EEF6E230E12
:1027E0002425E96E000E2521EA6EEF8227C201F052
:1027F0000001DDEF1DF00F0E02013E25E96E000E17
:102800003F21EA6EEF3C01D023D00F0E3E25E96E4A
:10281000000E3F21EA6EEFCF40F2196AF2BE198E28
:10282000F29E40C2ACF2000102EC00F019BEF28E42
:102830000F0E02013E25E96E000E3F21EA6EFF0EEB
:10284000EF6E230E3E25E96E000E3F21EA6EEF8209
:10285000070E3E25E96E000E3F21EA6EEE52EE5263
:10286000EC6AED52EF6AED52EF6AED52EF6A0D0E2F
:102870003E25E96E000E3F21EA6EEC6AED52EF6AEA
:10288000230E3E25E96E000E3F21EA6EEFA604D02E
:10289000000138EC08F00201230E3E25E96E000E1F
:1028A0003F21EA6EEF96210E3E25E96E000E3F2194
:1028B000EA6EEC6AED52240EEF6E230E3E25E96EB1
:1028C000000E3F21EA6EEF98230E3E25E96E000EC2
:1028D0003F21EA6EEFA006D03EC2E9FF3FC2EAFF09
:1028E000EF6A06D03EC2E9FF3FC2EAFF0A0EEF6E72
:1028F000100E3E25E96E000E3F21EA6EEC6AED52A5
:10290000EF6A0001000C196AF2BE198EF29E1F0ECA
:102910000201A96F0001B6EC00F019BEF28E000EA4
:1029200001A6010E016E00D0000C196AF2BE198ECC
:10293000F29E010E0201B16F190EB06F000102ECA0
:1029400001F019BEF28E196AF2BE198EF29E190EAE
:102950000201A96F0001B6EC00F019BEF28E01C0B1
:102960007AF2196AF2BE198EF29E0201B16B0E0E56
:10297000B06F000102EC01F019BEF28E196AF2BECE
:10298000198EF29E0E0E0201A96F0001B6EC00F046
:1029900019BEF28E01C07CF2196AF2BE198EF29E47
:1029A0000F0E0201A96F0001B6EC00F019BEF28E05
:1029B00001C07DF2196AF2BE198EF29E010E02016B
:1029C000B16F190EB06F000102EC01F019BEF28E6A
:1029D000196AF2BE198EF29E190E0201A96F00014A
:1029E000B6EC00F019BEF28E02017A51015CD8B447
:1029F00002D00001A8D7196AF2BE198EF29EB16BFF
:102A00000C0EB06F000102EC01F019BEF28E196AD3
:102A1000F2BE198EF29E0C0E0201A96F0001B6ECF7
:102A200000F019BEF28E01C07AF2196AF2BE198E58
:102A3000F29E0D0E0201A96F0001B6EC00F019BE66
:102A4000F28E01C07BF202017B517D5D16E303E152
:102A50007C517A5D12E27A517C5D006E7B517D592A
:102A6000036E0050FF0AF80F006E1B0E035600C0E5
:102A700001F003C002F01DD01CD07A517C5D09E149
:102A80007B517D5D06E1F70E016E1B0E026E11D0CB
:102A900010D07C517A5D7E6F7D517B597F6F010E26
:102AA0007E5D006E000E7F59036E00C001F0026E65
:102AB00000D00001CEEF16F0060E02019325996FAB
:102AC0001C0E94219A6F010E9925976F000E9A2182
:102AD000986F196AF2BE198EF29EB16B100EB06F2C
:102AE000000102EC01F019BEF28E196AF2BE198ED5
:102AF000F29E100E0201B36F97C2B4F20001D5EC42
:102B000000F019BEF28E196AF2BE198EF29E110EF5
:102B10000201B36F98C2B4F20001D5EC00F019BE07
:102B2000F28E010E0201955D006E000E9659036E45
:102B30000050972703509823196AF2BE198EF29E0F
:102B4000120EB36F97C2B4F20001D5EC00F019BEBB
:102B5000F28E196AF2BE198EF29E130E0201B36F45
:102B600098C2B4F20001D5EC00F019BEF28E196AD9
:102B7000F2BE198EF29E1F0E0201B56F300EB66FB7
:102B80000001F3EC00F019BEF28E196AF2BE198E44
:102B9000F29E1F0E0201A96F0001B6EC00F019BEF3
:102BA000F28E01BAF2D7196AF2BE198EF29E160E93
:102BB0000201A96F0001B6EC00F019BEF28E01C04F
:102BC00098F2196AF2BE198EF29E170E0201A96FD1
:102BD0000001B6EC00F019BEF28E01C097F20201BE
:102BE00097C201F098C202F00001000C140E876F2A
:102BF000450E02017F6F806B140E7D25816F000EE4
:102C00007E21826F0001852BD8B4862B86C084F28A
:102C100085C083F20201866B856B640E876F7CC270
:102C200088F28A6B896B46C08EF245C08DF244C033
:102C30008CF243C08BF2060E7A25E96E000E7B21E2
:102C4000EA6EEFCF00F0ECCF01F0ECCF02F0ECCF6A
:102C500003F003C092F202C091F201C090F200C0F2
:102C60008FF2020E946F7F0E936F000169EC0FF0EC
:102C700002017AC201F07BC203F07AC293F27BC2F6
:102C800094F2140E7D25956F000E7E21966F7BC207
:102C900098F27AC297F2996B9B6F95C29AF20001F3
:102CA0002FEC0BF0020E0201946F7F0E94C29FF284
:102CB0009E6FA16B140EA06F0001FCEC0AF00201E4
:102CC000946B936B966B140E956F0001F5DE02C04A
:102CD0008AF201C089F27AC093F20201956B0A0E62
:102CE000946F00017EEC0AF0020E0201946F890ECF
:102CF00094C29FF29E6FA16B020EA06F0001FCECCC
:102D00000AF07AC093F20201956B140E946F0001E1
:102D10007EEC0AF0000E016E026E000C010E020144
:102D20007A6F0001F0DD0152F9E00201513D08D057
:102D3000010E7A6F00016AEC0AF001C051F2020143
:102D4000513D01D000D151C293F2956B140E946F96
:102D500000017EEC0AF045C257F244C256F247C267
:102D600059F246C258F24BC25DF24AC25CF249C205
:102D70005BF248C25AF24FC261F24EC260F24DC2DB
:102D80005FF24CC25EF23F0E02016315636FF00EFC
:102D90006215626F50C263F20001C7D502C065F2CE
:102DA00001C064F20201655303E16451280805E2A1
:102DB000280E645F000E655B02D0656B646B676B09
:102DC000666B696B686B020E7B6F560E7A6F000143
:102DD000F0EC11F0140E02015227000E532350A301
:102DE0000FD0040E5227000E5323020E6A6F040EFA
:102DF0006B6F6C6F6D6B0F0E62156009626F04D0A4
:102E00000F0E62155009626F46C071F245C070F234
:102E100044C06FF243C06EF2060E4225E96E000E0A
:102E20004321EA6EEFCF00F0ECCF01F0ECCF02F0DF
:102E3000ECCF03F003C075F202C074F201C073F26C
:102E400000C072F2766B060E776F53C279F252C2EF
:102E500078F279C29AF278C299F20001C6EC08F0D1
:102E600002C079F201C078F2020E02017B6F6E0E91
:102E70007BC27DF27C6F7F6B0C0E7E6F00014FEC8E
:102E800010F001C066F20201661F02C067F2671F00
:102E900067C255F266C254F243C27BF242C27AF272
:102EA000060E7C6F53C27EF252C27DF200019EDE9E
:102EB000020E02017B6F560E7BC29FF29E6FA16BCA
:102EC000140EA06F0001FCEC0AF0020150A30DD01B
:102ED000020E7B6F6A0E7BC29FF29E6FA16B040E87
:102EE000A06F0001FCEC0AF0020151C293F2956B55
:102EF000140E946F00017EEC0AF053C27BF252C2B2
:102F00007AF2ECEC10F002C055F201C054F251C25A
:102F100093F20201956B240E946F00017EEC0AF08F
:102F200055C29DF2E1EC0AF054C29DF2E1EC0AF0C8
:102F300051C293F20201956B946B00017EEC0AF092
:102F4000ACEC0BF002010001000C02012051240D39
:102F5000F350036A8A0F016E000E032201C037F29C
:102F600003C038F2396B1E0E3725E96E000E38218A
:102F7000EA6EEF6A1F0E3725016E000E3821036ED0
:102F800001C03EF23F6F0001F4EC07F03FC2EAFFE0
:102F90003EC2E9FF02C0ECFFED5201C0EFFF210E7F
:102FA00002013725E96E000E3821EA6EEC6AED5217
:102FB000240EEF6E0D0E2325E96E000E2421EA6E1D
:102FC000EFA41ED0000138EC08F0020137C201F076
:102FD00038C203F037C23EF238C23FF2230E372523
:102FE000E96E000E3821EA6EEFA002D0000E01D08B
:102FF000010E3FC2EAFF3EC2E9FFEF6E1BEF1DF07C
:10300000160E3725E96E000E3821EA6EEFCF00F07C
:10301000ECCF01F0ECCF02F0ECCF03F003C02EF2C6
:1030200002C02DF201C02CF200C02BF20E0E23259F
:10303000E96E000E2421EA6EECCF03F0ED52EFCFE3
:103040003EF203C03FF2406B416B080E2325E96E50
:10305000000E2421EA6EEFCF00F0ECCF01F0ECCFB0
:1030600002F0ECCF03F000502B5D006E01502C59A4
:10307000016E02502D59026E03502E59036E0050FE
:103080003E5F01503F5B0250405B0350415B100EBE
:103090003725E96E000E3821EA6EECCF03F0ED52D1
:1030A000EFCF00F003C001F0026A036A00503E5DFA
:1030B0003A6F01503F593B6F025040593C6F0350EB
:1030C00041593D6F3DBF01D00AD0140E3725E96E3E
:1030D000000E3821EA6EEC6AED52EF6A0AD0140E47
:1030E0003725E96E000E3821EA6E27C2EFFF28C2AD
:1030F000ECFF37C2E9FF38C2EAFFEF2CBED00D0E5D
:103100002325E96E000E2421EA6EEFB212D00001F1
:1031100038EC08F00D0E02012325E96E000E242183
:10312000EA6EEFA804D0040E396FDFEF1CF01BEF3E
:103130001DF01A0E3725016E000E382101C03EF237
:103140003F6F040E2325E96E000E2421EA6EEFCFB7
:1031500040F2ECCF41F2ECCF42F2ECCF43F22551FA
:10316000402726514123000E42234323010E4025D0
:10317000006E000E4121016E000E4221026E000E13
:1031800043213FC2EAFF3EC2E9FF00C0EFFF01C09A
:10319000ECFF02C0ECFFEC6E1A0E3725E96E000E54
:1031A0003821EA6EEFCF00F0ECCF01F0ECCF02F067
:1031B000ECCF03F003C02AF202C029F201C028F2CA
:1031C00000C027F20D0E2325E96E000E2421EA6EC1
:1031D000EFB80ED037C2E9FF38C2EAFF020EEF6E39
:1031E000000138EC08F0120E0201396FDFEF1CF01D
:1031F00037C2E9FF38C2EAFF030EEF6E100E396FD7
:10320000140E3725016E000E3821036E3F6F0E0E2F
:103210002325E96E000E2421EA6EECCF03F0ED5277
:10322000EFCF40F23FC2EAFF01C0E9FF03C0ECFF6D
:10323000ED5240C2EFFF255126111AE0230E37252B
:10324000E96E000E3821EA6EEF86120E3725E96E20
:10325000000E3821EA6E26C2ECFFED5225C2EFFFC8
:10326000230E3725E96E000E3821EA6EEF8404D074
:10327000000138EC08F00201A2D337C2E9FF38C2DE
:10328000EAFFEF52D8A4CAD0000138EC08F00D0EC6
:1032900002012325E96E000E2421EA6EEFB203D06D
:1032A000040E396F8CD31A0E3725016E000E3821AB
:1032B00001C03EF23F6F040E2325E96E000E24216B
:1032C000EA6EEFCF40F2ECCF41F2ECCF42F2ECCF1E
:1032D00043F22551402726514123000E4223432328
:1032E000010E4025006E000E4121016E000E4221AC
:1032F000026E000E43213FC2EAFF3EC2E9FF00C05A
:10330000EFFF01C0ECFF02C0ECFFEC6E140E37259E
:10331000016E000E3821036E3F6F0E0E2325E96EFD
:10332000000E2421EA6EECCF03F0ED52EFCF40F215
:103330003FC2EAFF01C0E9FF03C0ECFFED5240C20B
:10334000EFFF010E3725016E000E3821036E01C01C
:103350003EF23F6FEA6E01C0E9FF22C2E2FF21C2E6
:10336000E1FF0A0E016EE6CFEEFF012EFCD70D0E37
:103370003725016E000E382123C2E9FF24C2EAFF7F
:10338000ECCF03F0ED52EFCF40F2EA6E01C0E9FF5F
:1033900003C0ECFFED5240C2EFFF37C2E9FF38C275
:1033A000EAFF020EEF6E160E3725E96E000E382189
:1033B000EA6EEFCF00F0ECCF01F0ECCF02F0ECCFF3
:1033C00003F003C02EF202C02DF201C02CF200C0A7
:1033D0002BF2160E3725E96E000E3821EA6E010E2B
:1033E000EE26000EEE22EE22ED221A0E3725E96EB1
:1033F000000E3821EA6EEFCF00F0ECCF01F0ECCFF9
:1034000002F0ECCF03F003C02AF202C029F201C09F
:1034100028F200C027F2120E396FD1D21A0E3725CA
:10342000E96E000E3821EA6EEFCF00F0ECCF01F02C
:10343000ECCF02F0ECCF03F003C032F202C031F265
:1034400001C030F200C02FF2160E3725E96E000ED3
:103450003821EA6EEFCF00F0ECCF01F0ECCF02F0B4
:10346000ECCF03F003C036F202C035F201C034F2F3
:1034700000C033F2040E2325E96E000E2421EA6E0B
:10348000EFCF00F0ECCF01F0ECCF02F0ECCF03F087
:1034900003C02AF202C029F201C028F200C027F2BC
:1034A000026A036A2551272726512823025029231F
:1034B00003502A23160E3725E96E000E3821EA6ED6
:1034C000EFCF00F0ECCF01F0ECCF02F0ECCF03F047
:1034D00003C02EF202C02DF201C02CF200C02BF26C
:1034E000040E2325E96E000E2421EA6EEFCF3EF292
:1034F000ECCF3FF2ECCF40F2ECCF41F22F513E5DEA
:10350000D8A44FD230513F5DD8A44BD23151405D49
:10351000D8A447D23251415DD8A443D237C2E9FF83
:1035200038C2EAFFEF50020843E10D0E2325E96E91
:10353000000E2421EA6EEFA836D01A0E3725E96E68
:10354000000E3821EA6E27C2EFFF28C2ECFF29C225
:10355000ECFF2AC2ECFF37C2E9FF38C2EAFF030ED4
:10356000EF6E255126111AE0230E3725E96E000E65
:103570003821EA6EEF86120E3725E96E000E3821EB
:10358000EA6E26C2ECFFED5225C2EFFF230E37256F
:10359000E96E000E3821EA6EEF8404D0000138ECA9
:1035A00008F0020104D0000138EC08F00201F8D163
:1035B0001A0E3725E96E000E3821EA6E27C2EFFF9A
:1035C00028C2ECFF29C2ECFF2AC2ECFF37C2E9FF98
:1035D00038C2EAFFEF500308D8A4EBD00D0E232524
:1035E000E96E000E2421EA6EEFA834D0230E3725B1
:1035F000E96E000E3821EA6EEFB22CD00F0E37259F
:10360000E96E000E3821EA6EEF3C01D023D00F0E98
:103610003725E96E000E3821EA6EEFCF3EF2196AC7
:10362000F2BE198EF29E3EC2ACF2000102EC00F036
:1036300019BEF28E0F0E02013725E96E000E3821F9
:10364000EA6EFF0EEF6E230E3725E96E000E38216D
:10365000EA6EEF820D0E2325E96E000E2421EA6E3C
:10366000EFA05BD0110E396F160E3725E96E000EF4
:103670003821EA6EEFCF00F0ECCF01F0ECCF02F092
:10368000ECCF03F003C02EF202C02DF201C02CF2E9
:1036900000C02BF2160E3725E96E000E3821EA6EB7
:1036A000010EEE26000EEE22EE22ED221A0E372536
:1036B000E96E000E3821EA6E010EEF24006E000E56
:1036C000EC20016E000EEC20026E000EEC20ED529C
:1036D000ED52ED5200C0EFFF01C0ECFF02C0ECFF65
:1036E000EC6E1A0E3725E96E000E3821EA6EEFCF28
:1036F00000F0ECCF01F0ECCF02F0ECCF03F003C010
:103700002AF202C029F201C028F200C027F237C213
:10371000E9FF38C2EAFF090EEF6E2551261144E099
:10372000230E3725E96E000E3821EA6EEFB61BD066
:10373000230E3725E96E000E3821EA6EEF86120E51
:103740003725E96E000E3821EA6E26C2ECFFED52F5
:1037500025C2EFFF230E3725E96E000E3821EA6EF1
:10376000EF84398920D0160E3725E96E000E3821F6
:10377000EA6E33C2EFFF34C2ECFF35C2ECFF36C253
:10378000ECFF1A0E3725E96E000E3821EA6E2FC2C3
:10379000EFFF30C2ECFF31C2ECFF32C2ECFF0001A0
:1037A00038EC08F0020104D0000138EC08F0020106
:1037B000F7D037C2E9FF38C2EAFFEF50090815E138
:1037C000000138EC08F00D0E02012325E96E000E11
:1037D0002421EA6EEFA808D038C23FF237C23EF289
:1037E0000001FBEC13F00201DBD037C2E9FF38C265
:1037F000EAFFEF5004086AE1000138EC08F00D0E12
:1038000002012325E96E000E2421EA6EEFA04DD0BF
:10381000100E396F1A0E3725E96E000E3821EA6E48
:10382000010EEF24006E000EEC20016E000EEC2065
:10383000026E000EEC20ED52ED52ED5200C0EFFF93
:1038400001C0ECFF02C0ECFFEC6E1A0E3725E96EEA
:10385000000E3821EA6EEFCF00F0ECCF01F0ECCF94
:1038600002F0ECCF03F003C02AF202C029F201C03B
:1038700028F200C027F20D0E2325E96E000E242148
:10388000EA6EEFA809D038C23FF237C23EF200011B
:10389000FBEC13F008D0020137C2E9FF38C2EAFF9F
:1038A000060EEF6E000110D002010D0E2325E96E09
:1038B000000E2421EA6EEFA806D037C2E9FF38C215
:1038C000EAFF050EEF6E00016AD0020137C2E9FF80
:1038D00038C2EAFFEF50050848E1000138EC08F073
:1038E0000D0E02012325E96E000E2421EA6EEFA0E1
:1038F0003BD0100E396F1A0E3725E96E000E3821B5
:10390000EA6E010EEF24006E000EEC20016E000E38
:10391000EC20026E000EEC20ED52ED52ED5200C094
:10392000EFFF01C0ECFF02C0ECFFEC6E1A0E372572
:10393000E96E000E3821EA6EEFCF00F0ECCF01F017
:10394000ECCF02F0ECCF03F003C02AF202C029F260
:1039500001C028F200C027F238C23FF237C23EF25F
:103960000001FBEC13F002011BD037C2E9FF38C2A3
:10397000EAFFEF50060814E1000138EC08F00D0EE4
:1039800002012325E96E000E2421EA6EEFA808D07B
:1039900038C23FF237C23EF20001FBEC13F00201E5
:1039A0000ED0000138EC08F0100E0201396F32C25F
:1039B0002AF231C229F230C228F22FC227F239533B
:1039C0003AE0020E2325E96E000E2421EA6EECCFC8
:1039D0003FF2ED52EFCF3EF223C2E9FF24C2EAFFED
:1039E000ECCF41F2ED52EFCF40F222C243F221C2BE
:1039F00042F23FC245F23EC244F241C247F240C2E7
:103A000046F22EC24BF22DC24AF22CC249F22BC210
:103A100048F22AC24FF229C24EF228C24DF227C202
:103A20004CF239C250F2FF0E516F536B526B0001D2
:103A30008EEC16F002010001F4EF1DF0060E0101FC
:103A4000F425E96E000EF521EA6EEFCF00F0ECCF21
:103A500001F0ECCF02F0ECCF03F003C011F202C092
:103A600010F201C00FF200C00EF2F6C1E9FFF7C17B
:103A7000EAFFEFCF00F0ECCF01F0ECCF02F0ECCF9B
:103A800003F003C015F202C014F201C013F200C02B
:103A900012F20201166B060E176FF9C119F2F8C186
:103AA00018F219C29AF218C299F20001C6EC08F095
:103AB00002C019F201C018F2020E0201216F0E0EAF
:103AC00021C27DF27C6F7F6B0C0E7E6F00014FEC8C
:103AD00010F001C01BF202011B1F02C01CF21C1FD0
:103AE000F9C17BF2F8C17AF20001ECEC10F002C0EF
:103AF0001EF201C01DF202011E511B5D03E11D51AA
:103B00001C5D07E0000138EC08F0010E016E73D077
:103B10000201226B216B0001D2EC11F0010E0201B7
:103B2000216FFA0E21C289F2886F8B6B140E8A6F97
:103B3000000188EC08F0010E02017B6FFA0E7A6F2B
:103B40000001F0EC11F0020106390F0B006E003499
:103B5000206F2037FC0E2017140E205D1F6F1F51A1
:103B60000101F85D0201206F000E0101F959020107
:103B7000216F140E205D0101F86F000E0201215922
:103B80000101F96F020106390F0B006E0034206F3E
:103B90002037FC0E2017226B20C221F20001D2EC4C
:103BA00011F0010E0201216FFA0E206FF5C123F210
:103BB000F4C122F2000103EF13F001C01AF2020176
:103BC0001A51FE0813E01AC220F2F5C122F2F4C124
:103BD00021F2010E246FFA0E236FF9C126F2F8C10B
:103BE00025F20001A5EF17F004D00201000138EC26
:103BF00008F0010E016E54EF22F0040E02014C2574
:103C0000016E000E4D21036E01C04EF24F6F040E87
:103C10004C25E96E000E4D21EA6EECCF51F2ED52CB
:103C2000EFCF50F251C29AF250C299F20001C6ECA5
:103C300008F04FC2EAFF4EC2E9FF02C0ECFFED52AE
:103C400001C0EFFF060E02014C25016E000E4D2152
:103C5000036E01C04EF24F6F060E4C25E96E000E4A
:103C60004D21EA6EECCF51F2ED52EFCF50F251C23E
:103C70009AF250C299F20001C6EC08F04FC2EAFF76
:103C80004EC2E9FF02C0ECFFED5201C0EFFF020E91
:103C900002014C25016E000E4D21036E01C04EF253
:103CA0004F6F020E4C25E96E000E4D21EA6EECCFEF
:103CB00051F2ED52EFCF50F251C29AF250C299F246
:103CC0000001C6EC08F04FC2EAFF4EC2E9FF02C095
:103CD000ECFFED5201C0EFFF000C020E02014D6F30
:103CE0004C6B896F4CC288F28B6B080E8A6F000197
:103CF00088EC08F002014B6B4A6BFBC103F0FAC180
:103D0000E9FFFBC1EAFFEFCF4CF202014E6B140E4C
:103D10004D6F506B4CC24FF2000157EC0EF002C0D9
:103D200049F201C048F20101FAC1E9FFFBC1EAFF13
:103D3000080EEF5CEF6EFBC103F0FAC1E9FFFBC1B7
:103D4000EAFFEFCF4CF2F9C189F2F8C188F2020123
:103D50008B6B4CC28AF2000188EC08F0020E020163
:103D60004D6F4C6B000149DF0101F6C1E9FFF7C15E
:103D7000EAFF00C2EFFFFCC1E9FFFDC1EAFF05C297
:103D8000ECFFED5204C2EFFFFEC1E9FFFFC1EAFF05
:103D900007C2ECFFED5206C2EFFF02014A51485D37
:103DA00003E14B51495D02E0000E01D0010E016EAE
:103DB00000017CEF22F0010E02017A6F00016AEC33
:103DC0000AF001C048F20201483D01D07FD048C24C
:103DD00093F2956B140E946F00017EEC0AF0036A67
:103DE0000101F951080F0201466F000E0320476FD1
:103DF0000101FF6BF6C1FEF10201016B006BFBC11B
:103E000003F2FAC102F2FDC105F2FCC104F2020E96
:103E1000EA6E060EE96EF8C1E2FFF7C1E1FF0101AB
:103E2000F951016E04E0E6CFEEFF012EFCD7010E42
:103E300002014D6FFE0E4C6F0001DFDE080E010126
:103E4000F92502014A6B496FF5C17BF2F4C17AF2A0
:103E5000010E7C6F4AC27EF249C27DF20001F6EC8F
:103E600015F0010E02014A6FFE0E4AC29FF29E6FCC
:103E700047C2A1F246C2A0F20001FCEC0AF0020126
:103E8000946B140E936F47C296F246C295F20001EE
:103E90005CEC15F002C001F201C000F248C293F2DE
:103EA0000201956B160E946F00017EEC0AF0020E73
:103EB00002014A6F496B9F6F49C29EF2A16BA06FCE
:103EC0000001FCEC0AF0ACEC0BF002010001A8EFE1
:103ED00022F00101FF6BF46BF4510408D8A056D214
:103EE000F451240DF350036A8A0F016E000E032271
:103EF00001C0F9F103C0FAF1230EF925E96E000EB5
:103F0000FA21EA6EEFB608D0230EF925E96E000E0D
:103F1000FA21EA6EEFA801D037D2F9C1E9FFFAC160
:103F2000EAFFEF500A0811E0F9C1E9FFFAC1EAFF20
:103F3000EF520CE1230EF925E96E000EFA21EA6E2C
:103F4000000EEFB0010E010801E11ED2F9C1E9FF38
:103F5000FAC1EAFFEF5003080CE1230EF925E96EE0
:103F6000000EFA21EA6E000EEFB0010E010801E129
:103F70000BD20001F4EC07F002C0F8F101C0F7F138
:103F80001F0E0101F925E96E000EFA21EA6EECCF51
:103F900003F0ED52EFCF01F0F851035C04E305E1CB
:103FA0000150F75D02E3000E01D0010E036A031019
:103FB00021E01F0EF925E96E000EFA21EA6EECCF22
:103FC00003F0ED52EF50FF080201006FFF0E0354A3
:103FD000016F0101F751020100270101F8510201AF
:103FE0000123010E0025016E000E0121036E015018
:103FF00011D001011F0EF925E96E000EFA21EA6EBB
:10400000ECCF03F0ED52EF50F75D006E0350F8591E
:10401000036E00500101F56F03C0F6F1210EF92582
:10402000E96E000EFA21EA6EECCF03F0ED52EFCF0D
:1040300001F0F651035C05E303E1F551015C01E396
:10404000A3D1010E02017A6F000183EC14F001523A
:1040500001E19CD11F0E0101F925016E000EFA212C
:10406000036E01C000F20201016F0001F4EC07F0E1
:1040700001C2EAFF00C2E9FF02C0ECFFED5201C03D
:10408000EFFF210E0101F925E96E000EFA21EA6E1B
:10409000D890EF34026EEC34036E0250ED52EF6EA6
:1040A00003C0ECFF1E0EF925E96E000EFA21EA6E40
:1040B000EF2AF9C1E9FFFAC1EAFF010EEF5CF70F41
:1040C000D8B0CED0090F0001C9EF21F0020E0101D6
:1040D000FF6FC6D01E0E0101F925E96E000EFA2110
:1040E000EA6EEF50030803E3120EFF6F16D0230EA3
:1040F000F925E96E000EFA21EA6EEFA006D0F9C1AB
:10410000E9FFFAC1EAFFEF6A08D0020EFF6FF9C1BA
:10411000E9FFFAC1EAFF010EEF6EA2D01E0E010107
:10412000F925E96E000EFA21EA6EEF50030822E34A
:104130000F0EF925E96E000EFA21EA6EEF3C01D070
:1041400014D00F0EF925E96E000EFA21EA6EEFCFBA
:1041500000F200C293F20201956B946B00017EECB9
:104160000AF0ACEC0BF004D00101100EFF6F00015F
:104170002ED001010F0EF925E96E000EFA21EA6E2C
:10418000EF3C01D01CD00F0EF925E96E000EFA218C
:10419000EA6EEFCF00F2196AF2BE198EF29E00C2EB
:1041A000ACF2000102EC00F019BEF28E0F0E01011C
:1041B000F925E96E000EFA21EA6EFF0EEF6E110E80
:1041C000FF6FF9C1E9FFFAC1EAFF040EEF6E0101CA
:1041D00047D01E0E0101F925E96E000EFA21EA6EA4
:1041E000EF50030803E3010EFF6F08D0FAC13FF25E
:1041F000F9C13EF20001FBEC13F0010131D0FAC12C
:104200003FF2F9C13EF2FBEC13F0010129D0FAC1F3
:104210003FF2F9C13EF2FBEC13F0010121D0010E97
:104220000101FF6FF9C1E9FFFAC1EAFF090EEF6E64
:1042300017D01E0E0101F925E96E000EFA21EA6E73
:10424000EF50030803E3010EFF6F08D0FAC13FF2FD
:10425000F9C13EF20001FBEC13F0010101D00101B4
:10426000FF53D8B491D0FFA917D0160EF925E96EE7
:10427000000EFA21EA6EEFCF00F0ECCF01F0ECCFA8
:1042800002F0ECCF03F003C0FEF102C0FDF101C06B
:10429000FCF100C0FBF122D0160EF925E96E000EEC
:1042A000FA21EA6EEFCF00F0ECCF01F0ECCF02F094
:1042B000ECCF03F003C0FEF102C0FDF101C0FCF140
:1042C00000C0FBF1160EF925E96E000EFA21EA6E28
:1042D000010EEE26000EEE22EE22ED22010EF92551
:1042E000016E000EFA21036E01C000F20201016F9F
:1042F0000B0E0101F925E96E000EFA21EA6EECCFF2
:1043000003F2ED52EFCF02F20D0EF925E96E000E29
:10431000FA21EA6EECCF05F2ED52EFCF04F21A0E5D
:10432000F925E96E000EFA21EA6EEFCF06F2ECCF26
:1043300007F2ECCF08F2ECCF09F203C043F201C060
:1043400042F203C245F202C244F205C247F204C27D
:1043500046F2FEC14BF2FDC14AF2FCC149F2FBC17B
:1043600048F209C24FF208C24EF207C24DF206C22D
:104370004CF2FFC150F2FF0E0201516F536B526BB2
:1043800000018EEC16F00101F42BA6D50001B1EF6F
:1043900022F0E824F76AF736AD0FF66E430EF722E7
:1043A0000A00F550FA6E0800F550F96ECC40D44082
:1043B0001C41D241FE41FE410E421E4232420101E9
:1043C000F391F3914A51F90FD8B0C7D0070F00010C
:1043D000B3EF22F0010E0101F56F4B0EF46F010EE9
:1043E000F76FF20EF66F0001D1EF08F0015202E113
:1043F0000101B3D00101F381F25303E1020E4A6FD0
:104400000AD0F251060803E1050E4A6F04D00001FC
:1044100038EC08F00101A1D00CEF0EF0015202E0DF
:1044200001014A6B010199D0010E0101F56FEE0EF9
:10443000F46F010EF76F4B0EF66F010EF96FF20E6F
:10444000F86F010EFB6F550EFA6F0001D9EF0FF0F8
:10445000015215E00101F381F22D03D0030E4A6FE2
:104460000CD0F251060803E1060E4A6F06D0F39114
:10447000000138EC08F001014A6B05D0000138EC6E
:1044800008F001014A6B69D0010E0101F56F4B0E76
:10449000F46F010EF76FEE0EF66F56C1F9F155C1CC
:1044A000F8F100011EEF1DF0015202E001014A6B1C
:1044B000010153D001014A6B565327E15551480879
:1044C00024E3010EF56F550EF46F010EF76FF20E37
:1044D000F66F010EF96F570EF86FF5C1FBF1F4C1DD
:1044E000FAF1010EFD6F970EFC6F010EFF6F990E32
:1044F000FE6F00016DEF1EF0015208E00101F25164
:10450000080803E1F381040E4A6F000138EC08F05B
:10451000010123D0010E02017A6F000183EC14F037
:10452000015218E0010E0101F56F4B0EF46FF66BAE
:10453000010EF86F570EF76F55C1F9F198C1FBF1F5
:1045400097C1FAF19AC1FDF199C1FCF1000133D490
:1045500001014A6B010101D00101F3B132D7000121
:10456000B8D4E0EF35F0E824F76AF736810FF66E3D
:10457000450EF7220A00F550FA6E0800F550F96E64
:10458000D443D4432844B444144518448844010116
:10459000F251070B006EF231016E013201321F0E33
:1045A00001160150F325E96E000EF421EA6EEFCFFB
:1045B00001F0002A01D00132002EFDD70001000CCD
:1045C000F4EC07F002C0F0F101C0EFF10101EB5192
:1045D000EF5FEC51F05B03E1EF513C0807E20001B3
:1045E00028EC05F071EC06F000D0010195908C905C
:1045F000196AF2BE198EF29E0A0E0201A96F00011D
:1046000073EC00F019BEF28ED1800400EDEF24F0BF
:1046100002010F510008D8B0F2D00F510808D8A0FD
:10462000EED00F2D1BD0000E84B2010E106F1D0EA8
:10463000A96E10C2A8FFA69CA69EA684F250006E8A
:10464000F29E0F01550EA76EAA0EA76EA682A6B205
:10465000FED7A6940050F212D1D002010F510208E9
:104660001BE1000E84B0010E106F1E0EA96E10C269
:10467000A8FFA69CA69EA684F250006EF29E0F0193
:10468000550EA76EAA0EA76EA682A6B2FED7A69456
:104690000050F212B3D002010F5103081BE1000ECB
:1046A00080BA010E106F1F0EA96E10C2A8FFA69C43
:1046B000A69EA684F250006EF29E0F01550EA76EC4
:1046C000AA0EA76EA682A6B2FED7A6940050F2123A
:1046D00095D002010F5104081BE1000E80B8010EB5
:1046E000106F200EA96E10C2A8FFA69CA69EA684DD
:1046F000F250006EF29E0F01550EA76EAA0EA76E25
:10470000A682A6B2FED7A6940050F21277D002017C
:104710000F5105081BE1000E82B4010E106F210E2F
:10472000A96E10C2A8FFA69CA69EA684F250006E99
:10473000F29E0F01550EA76EAA0EA76EA682A6B214
:10474000FED7A6940050F21259D002010F5106086C
:104750001BE1000E82B2010E106F220EA96E10C274
:10476000A8FFA69CA69EA684F250006EF29E0F01A2
:10477000550EA76EAA0EA76EA682A6B2FED7A69465
:104780000050F2123BD002010F5107081BE1000E4E
:1047900082B0010E106F230EA96E10C2A8FFA69C56
:1047A000A69EA684F250006EF29E0F01550EA76ED3
:1047B000AA0EA76EA682A6B2FED7A6940050F21249
:1047C0001DD002010F5108081AE1000E84B4010E39
:1047D000106F240EA96E10C2A8FFA69CA69EA684E8
:1047E000F250006EF29E0F01550EA76EAA0EA76E34
:1047F000A682A6B2FED7A6940050F21202010001D2
:10480000000C8385EFC1F2F10F0E0101F46F800EF1
:10481000F36F0001BCDE000E01A0010EEFC10FF22C
:104820000201106F0F0E126F890E116F000110EC54
:1048300007F0EFC10FF20201106B0F0E126F920E14
:10484000116F000110EC07F0F0C10FF2E1DE000C77
:104850000101EE6BEE5108080EE3EEC10FF202010A
:10486000106B010E126FE90E116F000110EC07F0D2
:104870000101EE2BEFD7D39181B6D381D39383BEC1
:10488000D383D39581B0D385D39781B2D387D3997E
:1048900081B4D389D39B82B8D38BD39D82BAD38D75
:1048A000D39F83BAD38FD49183BCD481EE6BEE5166
:1048B0000808D8A03ED1EEC1F2F1010EF46FD50E7A
:1048C000F36F000164DE000E01B0010E010B010860
:1048D000D8A4CFD0F4EC07F002C0F0F101C0EFF1A2
:1048E000D8900101EE35036AD70FE96E010E03205F
:1048F000EA6EECCF03F0ED52EF50EF5F0350F05B48
:1049000004E1EF510308D8B0B2D0EEC1F2F1010ECC
:10491000F46FD10EF36F00013ADE000E01B0010E0C
:10492000010B0FE1EEC1F2F1010E0101F46FD30EA4
:10493000F36F00012CDE000E01B0010E010B010827
:104940001EE0EEC1F2F1010E0101F46FD10EF36F22
:1049500000011DDE000E01B0010E010B0108D8A4FC
:104960007AD0EEC1F2F1010E0101F46FD30EF36FB4
:1049700000010DDE000E01B0010E010B6CE1EEC175
:10498000F2F1010E0101F46FD30EF36F0001FFDDB0
:10499000EEC10FF20201106B01B0102B010E126F6D
:1049A000D10E116F000110EC07F00101EE5317E179
:1049B000EEC1F2F1010EF46FD30EF36F0001E7DDEB
:1049C000000E01B0010E010B07E1F4EC07F002C08C
:1049D000ECF101C0EBF101D0F3D531D00101010EB2
:1049E000EE5D036A1A0FE96E000E0320EA6EEF50C7
:1049F00002081AE1EEC1F2F1010EF46FD30EF36F6B
:104A00000001C5DD000E01B0010E010B0BE1EEC18E
:104A10000FF2010E0201106F126FE90E116F00010B
:104A200010EC07F00CD00101EEC10FF2010E0201F3
:104A3000106F126FE90E116F000110EC07F0EEC15C
:104A40000FF20201106B010E126FD50E116F0001F3
:104A500010EC07F00BD0EEC10FF20201106B010E4B
:104A6000126FD50E116F000110EC07F001015FD03D
:104A70000001EEC1F2F1010E0101F46FD10EF36FEE
:104A8000000185DD000E01B0010E010B0FE1EEC14A
:104A9000F2F1010E0101F46FD30EF36F000177DD27
:104AA000000E01B0010E010B01081DE0EEC1F2F194
:104AB000010E0101F46FD10EF36F000168DD000EED
:104AC00001B0010E010B010831E1EEC1F2F1010E5E
:104AD0000101F46FD30EF36F000159DD000E01B038
:104AE000010E010B23E1EEC10FF2010E0201106F66
:104AF000126FD50E116F000110EC07F0D890010174
:104B0000EE35036AD70F016E010E032201C0EFF1EB
:104B100003C0F0F10001F4EC07F0F0C1EAFFEFC1CF
:104B2000E9FF02C0ECFFED5201C0EFFF0101EE2BE7
:104B3000BED6E9A307D0210EEF6F010EF06F000182
:104B400060DE0101E9A507D0200EEF6F020EF06FC5
:104B5000000157DE0101E9A707D0050EEF6F030E34
:104B6000F06F00014EDE0101E9A906D0040EEF6FDF
:104B7000F06F000146DE01010001E2EF35F00201B5
:104B80000BC2E9FF0CC2EAFFEFCF00F0ECCF01F05F
:104B9000ECCF02F0ECCF03F003C016F202C015F226
:104BA00001C014F200C013F2020E186F0D0E176F41
:104BB000010E196F000145EC0DF060EF30F00201BD
:104BC0000BC2E9FF0CC2EAFFEFCF00F0ECCF01F01F
:104BD000ECCF02F0ECCF03F000500101465D09E19B
:104BE0000150475D06E10250485D03E10350495D15
:104BF0000CE05150465D1EE15250475D1BE15350A1
:104C0000485D18E15450495D15E10EC203F0020100
:104C10000DC2E9FF0EC2EAFF010EE26E400EE16E28
:104C2000060E016EE6CFEEFF012EFCD7010E016EDF
:104C300004D00101000E016E0201000177EF30F097
:104C4000020112910F6B0F51040817E30F51240D4D
:104C5000F350036A8A0F016E000E032201C010F2A6
:104C600003C011F210C2E9FF11C2EAFFEF500A08B7
:104C700002E1128102D00F2BE6D712B103D0FE0E53
:104C8000016EEAD00B0E1025E96E000E1121EA6EBE
:104C90000001882BD8B4892B89C0ECFFED5288C065
:104CA000EFFF8951120809E2FF0A03E188518708E2
:104CB00004E2030E896FFF0E886F230E0201102598
:104CC000E96E000E1121EA6EEF900D0E1025E96ECF
:104CD000000E1121EA6E0EC2ECFFED520DC2EFFF85
:104CE000160E1025E96E000E1121EA6E010EEE2659
:104CF000000EEE22EE22ED221A0E1025E96E000EB5
:104D00001121EA6EEE52EE52EC6AED52EF6AED526C
:104D1000EF6AED52EF6A010E1025016E000E1121AF
:104D2000036E01C013F2146FEA6E01C0E9FF0CC2FA
:104D3000E2FF0BC2E1FF0A0E016EE6CFEEFF012E8D
:104D4000FCD7010E1025016E000E1121036E01C06B
:104D500013F2146F0B0E1025E96E000E1121EA6E8E
:104D6000ECCF16F2ED52EFCF15F20D0E1025E96ED5
:104D7000000E1121EA6EECCF18F2ED52EFCF17F2D0
:104D8000160E1025E96E000E1121EA6EEFCF19F212
:104D9000ECCF1AF2ECCF1BF2ECCF1CF21A0E10255E
:104DA000E96E000E1121EA6EEFCF1DF2ECCF1EF27C
:104DB000ECCF1FF2ECCF20F203C043F201C042F26D
:104DC00016C245F215C244F218C247F217C246F2A3
:104DD0001CC24BF21BC24AF21AC249F219C248F273
:104DE00020C24FF21FC24EF21EC24DF21DC24CF243
:104DF000020E506FFF0E516F536B526B00018EEC21
:104E000016F0020110C2E9FF11C2EAFF010EEF6EB7
:104E1000160E1025E96E000E1121EA6E010EEE2627
:104E2000000EEE22EE22ED221F0E1025016E000E66
:104E30001121036E01C013F2146F0001F4EC07F0AE
:104E400014C2EAFF13C2E9FF02C0ECFFED5201C039
:104E5000EFFF02010FC201F00001B0EF30F00201DC
:104E60000B51240DF3500D6B0C6F8A0E0C25E96E5F
:104E7000000E0D21EA6EEF50030802E0000E01D093
:104E8000010E016E0001000C93988A98000C02013B
:104E90000B51240DF3500D6B0C6F140E0C25016E8D
:104EA000000E0D21036E01508A0FE96E000E0320E3
:104EB000EA6EECCF0DF2ED52EFCF0CF20C5305E1A0
:104EC0000D5303E1000E016E2FD00B51240DF35052
:104ED0000D6B0C6F0F0E0C25016E000E0D21036E75
:104EE00001508A0FE96E000E0320EA6EEF3C08D0F5
:104EF0007A6B000183EC14F00150020115D014D03C
:104F00000B51240DF3500D6B0C6F230E0C27000E6C
:104F10000D238A0E0C25E96E000E0D21EA6E000E9F
:104F2000EFB2010E016E00D0000103EF31F002017B
:104F30002251016A215D03E221C200F00CD0006A17
:104F4000080E236F213700362251005CD8B0006E66
:104F50000136232FF7D70001000CD0C1EAFFCFC1E3
:104F6000E9FF020121C2EFFFE92AD8B4EA2AEF6A79
:104F70000101CF2BD8B4D02B0001000C200E020170
:104F80001CA9300E1D6F1BC200F01BAF07D0001E06
:104F9000002A00C01BF22D0E1D6F1C8F01501BC27A
:104FA00021F2640E226F0001C2DF00C01BF2300E3E
:104FB000012402011E6F1BC221F20A0E226F0001A2
:104FC000B6DF300E00240201206F300E01241F6F67
:104FD0001DC200F01CA702D01CAF1C951CB90BD041
:104FE0001CAF22D01CB520D000C01EF21CB31CD0B8
:104FF00000C01FF219D0300E1E5D16E100C01EF277
:10500000200E1D6F1CA704D01C951C831CAF1C9385
:10501000300E1F5D09E100C01FF2200E1E6F1CA79D
:10502000F7D71C931CAF1C911CA505D01DC221F203
:10503000000193DF02011CA305D01EC221F2000172
:105040008CDF02011CA104D01FC221F2000185DF08
:1050500020C221F2000181DF000C02011451240D55
:10506000F350036A8A0F016E000E032201C015F28D
:1050700003C016F20F0E1525E96E000E1621EA6E1A
:10508000EF3C03D0000E016ECBD0230E1525E96E48
:10509000000E1621EA6E000EEFB2010E000A03E1C7
:1050A000000E016EBDD0010E1525016E000E1621F9
:1050B000036E01C017F2186F0B0E1525E96E000E76
:1050C0001621EA6EECCF1AF2ED52EFCF19F20D0E67
:1050D0001525E96E000E1621EA6EECCF1CF2ED529A
:1050E000EFCF1BF2160E1525E96E000E1621EA6EA3
:1050F000EFCF1DF2ECCF1EF2ECCF1FF2ECCF20F27F
:105100001A0E1525E96E000E1621EA6EEFCF21F278
:10511000ECCF22F2ECCF23F2ECCF24F20F0E1525C8
:10512000E96E000E1621EA6EEFCF25F2100E15255E
:10513000E96E000E1621EA6EECCF27F2ED52EFCFAA
:1051400026F203C043F201C042F21AC245F219C26C
:1051500044F21CC247F21BC246F220C24BF21FC2ED
:105160004AF21EC249F21DC248F224C24FF223C2C3
:105170004EF222C24DF221C24CF2180E506F25C2DF
:1051800051F227C253F226C252F200018EEC16F001
:10519000160E02011525016E000E1621036E01C0C8
:1051A00017F2186FEA6E01C0E9FFEFCF19F2ECCFEA
:1051B0001AF2ECCF1BF2ECCF1CF2100E1525E96EA3
:1051C000000E1621EA6EECCF03F0ED52EFCF00F0A7
:1051D00003C001F0026A036A195100261A51012224
:1051E0001B5102221C51032218C2EAFF17C2E9FF19
:1051F00000C0EFFF01C0ECFF02C0ECFF03C0ECFFFA
:10520000230E1525E96E000E1621EA6EEF92230E8D
:105210001525E96E000E1621EA6EEF98010E016E5B
:105220000001000C02010E51240DF350036A8A0F95
:10523000016E000E032201C010F203C011F2140E21
:105240001025E96E000E1121EA6EECCF15F2ED5239
:10525000EFCF14F2145305E1155303E1000E016E74
:1052600083D00F0E1025E96E000E1121EA6EEF3C7F
:1052700039D00F0E1025016E000E1121036E01C0F2
:1052800014F2156F7A6B00016AEC0AF015C2EAFF9E
:1052900014C2E9FF01C0EFFF0F0E02011025E96EF5
:1052A000000E1121EA6EEF3C03D0000E016E5CD0BF
:1052B000100E1025E96E000E1121EA6EEC6AED5217
:1052C000EF6A0F0E1025E96E000E1121EA6EEFCF86
:1052D00014F214C293F2956B280E946F00017EECC9
:1052E0000AF00201230E1025E96E000E1121EA6E6C
:1052F000EF880FC29DF20001E1EC0AF0140E0201EA
:105300001025E96E000E1121EA6EFF0EEF2602E273
:10531000EE52ED06100E1025E96E000E1121EA6E18
:10532000ECCF03F0ED52EFCF12F203C013F2122BC9
:10533000D8B4132B100E1025E96E000E1121EA6E61
:1053400013C2ECFFED5212C2EFFF135102080AE242
:10535000FF0A03E11251C90805E20EC214F200016E
:105360007CDE0201010E016E0001BCEF29F0C9C113
:105370000EF20DC20FF256D7000CEF520FE0EACF3B
:105380000CF2E9CF0BF2EFCF0DF2F1DF0CC2EAFF26
:105390000BC2E9FFE92AD8B4EA2AEFD7000C0201D0
:1053A0000CBF11D00F0E006E0B3900160A0E005CF8
:1053B00003E2300E002602D00C51002600C00DF290
:1053C0000001D5DF02010F0E0B170A0E0B5D02E282
:1053D000300E02D00C9F0C510B270BC20DF20001B6
:1053E000C6DF000C0900F5520CE0F6CF0BF2F7CF48
:1053F0000CF2F5CF0DF2BBDF0BC2F6FF0CC2F7FFCC
:10540000F1D75EEF34F002010B51240DF3500D6B18
:105410000C6F230E0C27000E0D238A0E0C25E96E4F
:10542000000E0D21EA6E000EEFB6010E016E0001B6
:1054300084EF34F002010B51240DF350036A8A0FFC
:10544000016E000E032201C00EF203C00FF2230E04
:105450000E25E96E000E0F21EA6EEFA651D0230E45
:105460000E25E96E000E0F21EA6EEFA40ED0226B1E
:10547000140E216F0001D2EC11F0230E02010E2553
:10548000E96E000E0F21EA6EEF94120E0E25E96E02
:10549000000E0F21EA6EECCF11F2ED52EFCF10F2B9
:1054A000105310E111530EE1000138EC08F0230E07
:1054B00002010E25E96E000E0F21EA6EEF96000E36
:1054C000016E20D0120E0E25E96E000E0F21EA6E3D
:1054D000FF0EEF2602E2EE52ED060DC203F00CC203
:1054E00010F20DC211F20001CAEC10F011C2EAFF75
:1054F00010C2E9FF01C0EFFF010E016E020102D0F0
:10550000000E016E0001B7EF34F002010B510101F2
:10551000AA5D05E102010C510101AB5D02E0000E44
:1055200001D0010E016E0001000C02010C510101BD
:10553000AC5D0AE102010D510101AD5D05E1020121
:105540000E510101AE5D02E0000E01D0010E016EB0
:105550000001000C02010C510101AF5D05E10201E7
:105560000D510101B05D02E0000E01D0010E016E8F
:105570000001000C02010D5130081BE10CC20FF2BA
:10558000106B0F0E126F890E116F000110EC07F0F7
:105590000CC20FF20201106B0F0E126F920E116F00
:1055A000000110EC07F00EC20FF208EC23F063D0FC
:1055B00002010D5131081CE10CC20FF2010E106FF7
:1055C0000F0E126F890E116F000110EC07F00CC264
:1055D0000FF20201106B0F0E126F920E116F00018D
:1055E00010EC07F00EC20FF208EC23F044D00201D9
:1055F0000D51320841E10CC20FF2010E106F0F0E77
:10560000126F890E116F000110EC07F00CC20FF23F
:105610000201106B0F0E126F920E116F000110EC51
:1056200007F0040E02010F6F196AF2BE198EF29E86
:10563000E60EA96F000173EC00F019BEF28E0201B4
:105640000F2FF2D70CC20FF2106B0F0E126F890ED4
:10565000116F000110EC07F00CC20FF20201106B89
:105660000F0E126F920E116F000110EC07F00EC2B8
:105670000FF208EC23F002010001000C670E02019A
:105680000C6F650E0D6F740E0E6F00014EDF015230
:1056900001E0B2D0730E02010C6F650E0D6F740E37
:1056A0000E6F000142DF0152D8B4A0D0B1C10BF29D
:1056B0006F0E02010C6F310E0D6F00014BDF0152B6
:1056C0000AE0210E02010C6F0BC20DF2010E0E6FEB
:1056D000000150DF8AD06F0E02010C6F320E0D6F89
:1056E000000138DF01520AE0200E02010C6F0BC2EC
:1056F0000DF2020E0E6F00013DDF77D06F0E02013A
:105700000C6F330E0D6F000125DF01520AE0050E0C
:1057100002010C6F0BC20DF2030E0E6F00012ADFA7
:1057200064D06F0E02010C6F340E0D6F000112DF9A
:10573000015209E0040E02010C6F0BC20DF20E6F54
:10574000000118DF52D06F0E02010C6F350E0D6F85
:10575000000100DF01520AE0120E02010C6F0BC2C1
:105760000DF2050E0E6F000105DF3FD06F0E020136
:105770000C6F360E0D6F0001EDDE01520AE0110EC6
:1057800002010C6F0BC20DF2060E0E6F0001F2DE6D
:105790002CD06F0E02010C6F370E0D6F0001DADE98
:1057A00001520AE0100E02010C6F0BC20DF2070E3F
:1057B0000E6F0001DFDE19D06F0E02010C6F380E84
:1057C0000D6F0001C7DE01520AE0220E02010C6FCC
:1057D0000BC20DF2080E0E6F0001CCDE06D0030ED8
:1057E0000101A86F000103EC00F006D0030E0101D7
:1057F000A86F000103EC00F0D7EF34F0080E0201AF
:105800000B6F0B510F082BE3036A0B51A90FE96EC5
:10581000010E0320EA6EEF5031080BE1080E0B5D1C
:10582000036A3B0FE96E000E0320EA6E010EEF6E75
:1058300014D0036A0B51A90FE96E010E0320EA6E22
:10584000EF5032080AE1080E0B5D036A3B0FE96E68
:10585000000E0320EA6E020EEF6E0B2BD2D7000172
:1058600046EC06F030EF2FF0006A016A02012E517B
:10587000D8902FB10026003201322FB3002600321B
:1058800001322FB50026003201322FB70026003238
:1058900001322FB90026003201322FBB0026003220
:1058A00001322FBD0026003201322FBF0026003208
:1058B00001320001CAEF2CF002012C6B2A6B0A0E98
:1058C0002B6F296B2751281103E1000E016EC3D005
:1058D0002C512C2B036A2725E96E28510320EA6EF0
:1058E000EFCF2DF22D512D080DE1010E2A6F2C5115
:1058F0002C2B036A2725E96E28510320EA6EEFCF8F
:105900002DF20DD02D512B080AE12C512C2B036ABE
:105910002725E96E28510320EA6EEFCF2DF22D5195
:105920002F08D8B090D02D513908D8A08CD02D5147
:10593000300821E1036A2C512725E96E2851032004
:10594000EA6EEF5078080AE0036A2C512725E96EC9
:1059500028510320EA6EEF5058080DE1100E2B6F0E
:105960002C2B2C512C2B036A2725E96E2851032060
:10597000EA6EEFCF2DF22B510A081DE12D512F08B1
:1059800019E22D51390816E30A0E2E6F29C22FF2A3
:1059900000016AD7300E02012D5D0124296F2C51C0
:1059A0002C2B036A2725E96E28510320EA6EEFCFDE
:1059B0002DF2E4D748D02B51100845E12D51600855
:1059C00006E22D517A0803E32D51DF0B01D02D5152
:1059D0002D6F2D512F0803E22D51390806E22D516C
:1059E000400831E22D5146082EE32D512F080CE2DC
:1059F0002D51390809E329392E6FF00E2E17300E7C
:105A00002D5D2E25296F09D029392E6FF00E2E1706
:105A1000410E2D5D0A0F2E25296F2C512C2B036A68
:105A20002725E96E28510320EA6EEFCF2DF22D5184
:105A3000600806E22D517A0803E32D51DF0B01D0F7
:105A40002D512D6FC6D72A2D04D02B510A0801E104
:105A5000296D29C201F00001000C0201126B080E31
:105A60000C6F0CC211F211511F0830E3036A11517F
:105A7000A90FE96E010E0320EA6EEF502D080DE12B
:105A8000122B1251030809E3036A12510C0FE96E3D
:105A9000020E0320EA6E11C2EFFF036A1151A90F33
:105AA000E96E010E0320EA6EEF507D080DE1122B26
:105AB0001251040809E3036A12510C0FE96E020E39
:105AC0000320EA6E11C2EFFF112BCDD7125104084B
:105AD00008E0030E0101A86F000103EC00F076D18D
