:1000000001308A0067290000A015200883168700A8
:100010008616061686150615861406148312A01673
:100020002008831687008312201620088316870075
:10003000831220112008831687008312071183166C
:100040000510831205108316851083128510831600
:1000500005118312051183168511831285118316EC
:100060000512831205128316851283128512201041
:1000700020088316870083120710A010200883161B
:100080008700831287108A11852922308400831308
:100090000008031958280630F800F701F70B4E281E
:1000A000F80B4D287B30F700F70B5428800B4B28BA
:1000B000080087195D28652965280719652820111A
:1000C00020088316870083120715861E75280518D9
:1000D00075283230A2004520861E74280518742821
:1000E00083160510831205148428861A8428051C9B
:1000F00084283230A2004520861A8428051C8428D2
:100100008316051083120510061E9428851894285E
:100110003230A2004520061E9328851893288316A6
:10012000851083128514A328061AA328851CA328EA
:100130003230A2004520061AA328851CA328831666
:10014000851083128510861DB3280519B328323017
:10015000A2004520861DB2280519B2288316051174
:1001600083120515C2288619C228051DC2283230FF
:10017000A20045208619C228051DC2288316051134
:1001800083120511061DD2288519D2283230A2000B
:100190004520061DD1288519D12883168511831283
:1001A0008515E1280619E128851DE1283230A200D5
:1001B00045200619E128851DE12883168511831243
:1001C0008511861CF128051AF1283230A20045203D
:1001D000861CF028051AF0288316051283120516CE
:1001E000002986180029051E00293230A20045206A
:1001F00086180029051E0029831605128312051290
:10020000061C1029851A10293230A2004520061C30
:100210000F29851A0F2983168512831285161F2927
:1002200006181F29851E1F293230A20045200618F6
:100230001F29851E1F298316851283128512871E8A
:100240003129071831293230A2004520871E302974
:1002500007183029201020088316870083120714FE
:100260004229871A4229071C42293230A200452020
:10027000871A4229071C422920102008831687006C
:1002800083120710071E5429871854293230A20000
:100290004520071E532987185329A01020088316CC
:1002A0008700831287146529071A6529871C652929
:1002B0003230A2004520071A6529871C6529A01045
:1002C000200883168700831287108A118D298401E4
:1002D00083131F308305FF30A00083161F109F106B
:1002E00000300317850089008600880083120313FD
:1002F0001F1083161F109F10003003178500890000
:10030000860088008312031304280830A100FA3005
:0E031000A2004520A10B872959288C296300E3
:04400E00F23DFF3F41
:00000001FF
;PIC16F723
;CRC=3840  CREATED="13-Sep-17 22:11"
